{
  "contractName": "CertificateNFT",
  "abi": [
    {
      "inputs": [],
      "stateMutability": "nonpayable",
      "type": "constructor"
    },
    {
      "anonymous": false,
      "inputs": [
        {
          "indexed": true,
          "internalType": "address",
          "name": "owner",
          "type": "address"
        },
        {
          "indexed": true,
          "internalType": "address",
          "name": "approved",
          "type": "address"
        },
        {
          "indexed": true,
          "internalType": "uint256",
          "name": "tokenId",
          "type": "uint256"
        }
      ],
      "name": "Approval",
      "type": "event"
    },
    {
      "anonymous": false,
      "inputs": [
        {
          "indexed": true,
          "internalType": "address",
          "name": "owner",
          "type": "address"
        },
        {
          "indexed": true,
          "internalType": "address",
          "name": "operator",
          "type": "address"
        },
        {
          "indexed": false,
          "internalType": "bool",
          "name": "approved",
          "type": "bool"
        }
      ],
      "name": "ApprovalForAll",
      "type": "event"
    },
    {
      "anonymous": false,
      "inputs": [
        {
          "indexed": false,
          "internalType": "uint256",
          "name": "_fromTokenId",
          "type": "uint256"
        },
        {
          "indexed": false,
          "internalType": "uint256",
          "name": "_toTokenId",
          "type": "uint256"
        }
      ],
      "name": "BatchMetadataUpdate",
      "type": "event"
    },
    {
      "anonymous": false,
      "inputs": [
        {
          "indexed": true,
          "internalType": "address",
          "name": "owner",
          "type": "address"
        },
        {
          "indexed": true,
          "internalType": "uint256",
          "name": "certificateId",
          "type": "uint256"
        }
      ],
      "name": "CertificateUploaded",
      "type": "event"
    },
    {
      "anonymous": false,
      "inputs": [
        {
          "indexed": true,
          "internalType": "uint256",
          "name": "certificateId",
          "type": "uint256"
        },
        {
          "indexed": false,
          "internalType": "bool",
          "name": "validated",
          "type": "bool"
        }
      ],
      "name": "CertificateValidated",
      "type": "event"
    },
    {
      "anonymous": false,
      "inputs": [
        {
          "indexed": false,
          "internalType": "uint256",
          "name": "_tokenId",
          "type": "uint256"
        }
      ],
      "name": "MetadataUpdate",
      "type": "event"
    },
    {
      "anonymous": false,
      "inputs": [
        {
          "indexed": true,
          "internalType": "address",
          "name": "from",
          "type": "address"
        },
        {
          "indexed": true,
          "internalType": "address",
          "name": "to",
          "type": "address"
        },
        {
          "indexed": true,
          "internalType": "uint256",
          "name": "tokenId",
          "type": "uint256"
        }
      ],
      "name": "Transfer",
      "type": "event"
    },
    {
      "inputs": [
        {
          "internalType": "address",
          "name": "",
          "type": "address"
        }
      ],
      "name": "GovernmentAccounts",
      "outputs": [
        {
          "internalType": "bool",
          "name": "",
          "type": "bool"
        }
      ],
      "stateMutability": "view",
      "type": "function"
    },
    {
      "inputs": [
        {
          "internalType": "address",
          "name": "",
          "type": "address"
        }
      ],
      "name": "InduvitualsAccounts",
      "outputs": [
        {
          "internalType": "bool",
          "name": "",
          "type": "bool"
        }
      ],
      "stateMutability": "view",
      "type": "function"
    },
    {
      "inputs": [
        {
          "internalType": "address",
          "name": "to",
          "type": "address"
        },
        {
          "internalType": "uint256",
          "name": "tokenId",
          "type": "uint256"
        }
      ],
      "name": "approve",
      "outputs": [],
      "stateMutability": "nonpayable",
      "type": "function"
    },
    {
      "inputs": [
        {
          "internalType": "address",
          "name": "owner",
          "type": "address"
        }
      ],
      "name": "balanceOf",
      "outputs": [
        {
          "internalType": "uint256",
          "name": "",
          "type": "uint256"
        }
      ],
      "stateMutability": "view",
      "type": "function"
    },
    {
      "inputs": [],
      "name": "certificateCounter",
      "outputs": [
        {
          "internalType": "uint256",
          "name": "_value",
          "type": "uint256"
        }
      ],
      "stateMutability": "view",
      "type": "function"
    },
    {
      "inputs": [
        {
          "internalType": "uint256",
          "name": "",
          "type": "uint256"
        }
      ],
      "name": "certificates",
      "outputs": [
        {
          "internalType": "address",
          "name": "owner",
          "type": "address"
        },
        {
          "internalType": "string",
          "name": "name",
          "type": "string"
        },
        {
          "internalType": "string",
          "name": "data",
          "type": "string"
        },
        {
          "internalType": "bool",
          "name": "validated",
          "type": "bool"
        },
        {
          "internalType": "string",
          "name": "ipfsAddress",
          "type": "string"
        }
      ],
      "stateMutability": "view",
      "type": "function"
    },
    {
      "inputs": [
        {
          "internalType": "uint256",
          "name": "tokenId",
          "type": "uint256"
        }
      ],
      "name": "getApproved",
      "outputs": [
        {
          "internalType": "address",
          "name": "",
          "type": "address"
        }
      ],
      "stateMutability": "view",
      "type": "function"
    },
    {
      "inputs": [],
      "name": "induvitualCertificateCounter",
      "outputs": [
        {
          "internalType": "uint256",
          "name": "",
          "type": "uint256"
        }
      ],
      "stateMutability": "view",
      "type": "function"
    },
    {
      "inputs": [
        {
          "internalType": "address",
          "name": "owner",
          "type": "address"
        },
        {
          "internalType": "address",
          "name": "operator",
          "type": "address"
        }
      ],
      "name": "isApprovedForAll",
      "outputs": [
        {
          "internalType": "bool",
          "name": "",
          "type": "bool"
        }
      ],
      "stateMutability": "view",
      "type": "function"
    },
    {
      "inputs": [],
      "name": "name",
      "outputs": [
        {
          "internalType": "string",
          "name": "",
          "type": "string"
        }
      ],
      "stateMutability": "view",
      "type": "function"
    },
    {
      "inputs": [
        {
          "internalType": "address",
          "name": "",
          "type": "address"
        },
        {
          "internalType": "uint256",
          "name": "",
          "type": "uint256"
        }
      ],
      "name": "ownerCertificates",
      "outputs": [
        {
          "internalType": "uint256",
          "name": "",
          "type": "uint256"
        }
      ],
      "stateMutability": "view",
      "type": "function"
    },
    {
      "inputs": [
        {
          "internalType": "uint256",
          "name": "tokenId",
          "type": "uint256"
        }
      ],
      "name": "ownerOf",
      "outputs": [
        {
          "internalType": "address",
          "name": "",
          "type": "address"
        }
      ],
      "stateMutability": "view",
      "type": "function"
    },
    {
      "inputs": [
        {
          "internalType": "address",
          "name": "from",
          "type": "address"
        },
        {
          "internalType": "address",
          "name": "to",
          "type": "address"
        },
        {
          "internalType": "uint256",
          "name": "tokenId",
          "type": "uint256"
        }
      ],
      "name": "safeTransferFrom",
      "outputs": [],
      "stateMutability": "nonpayable",
      "type": "function"
    },
    {
      "inputs": [
        {
          "internalType": "address",
          "name": "from",
          "type": "address"
        },
        {
          "internalType": "address",
          "name": "to",
          "type": "address"
        },
        {
          "internalType": "uint256",
          "name": "tokenId",
          "type": "uint256"
        },
        {
          "internalType": "bytes",
          "name": "data",
          "type": "bytes"
        }
      ],
      "name": "safeTransferFrom",
      "outputs": [],
      "stateMutability": "nonpayable",
      "type": "function"
    },
    {
      "inputs": [
        {
          "internalType": "address",
          "name": "operator",
          "type": "address"
        },
        {
          "internalType": "bool",
          "name": "approved",
          "type": "bool"
        }
      ],
      "name": "setApprovalForAll",
      "outputs": [],
      "stateMutability": "nonpayable",
      "type": "function"
    },
    {
      "inputs": [],
      "name": "symbol",
      "outputs": [
        {
          "internalType": "string",
          "name": "",
          "type": "string"
        }
      ],
      "stateMutability": "view",
      "type": "function"
    },
    {
      "inputs": [
        {
          "internalType": "address",
          "name": "from",
          "type": "address"
        },
        {
          "internalType": "address",
          "name": "to",
          "type": "address"
        },
        {
          "internalType": "uint256",
          "name": "tokenId",
          "type": "uint256"
        }
      ],
      "name": "transferFrom",
      "outputs": [],
      "stateMutability": "nonpayable",
      "type": "function"
    },
    {
      "inputs": [
        {
          "internalType": "address",
          "name": "_account",
          "type": "address"
        }
      ],
      "name": "grantGovernmentPrivilege",
      "outputs": [],
      "stateMutability": "nonpayable",
      "type": "function"
    },
    {
      "inputs": [
        {
          "internalType": "address",
          "name": "_account",
          "type": "address"
        }
      ],
      "name": "grantInduvitualsPrivilege",
      "outputs": [],
      "stateMutability": "nonpayable",
      "type": "function"
    },
    {
      "inputs": [
        {
          "internalType": "address",
          "name": "_to",
          "type": "address"
        },
        {
          "internalType": "string",
          "name": "URI",
          "type": "string"
        }
      ],
      "name": "safeMint",
      "outputs": [],
      "stateMutability": "nonpayable",
      "type": "function"
    },
    {
      "inputs": [
        {
          "internalType": "uint256",
          "name": "tokenId",
          "type": "uint256"
        }
      ],
      "name": "tokenURI",
      "outputs": [
        {
          "internalType": "string",
          "name": "",
          "type": "string"
        }
      ],
      "stateMutability": "view",
      "type": "function"
    },
    {
      "inputs": [
        {
          "internalType": "bytes4",
          "name": "interfaceId",
          "type": "bytes4"
        }
      ],
      "name": "supportsInterface",
      "outputs": [
        {
          "internalType": "bool",
          "name": "",
          "type": "bool"
        }
      ],
      "stateMutability": "view",
      "type": "function"
    }
  ],
  "bytecode": "0x608060405234801562000010575f80fd5b506040518060400160405280600e81526020017f43657274696669636174654e46540000000000000000000000000000000000008152506040518060400160405280600481526020017f434e465400000000000000000000000000000000000000000000000000000000815250815f90816200008d91906200030c565b5080600190816200009f91906200030c565b505050620003f0565b5f81519050919050565b7f4e487b71000000000000000000000000000000000000000000000000000000005f52604160045260245ffd5b7f4e487b71000000000000000000000000000000000000000000000000000000005f52602260045260245ffd5b5f60028204905060018216806200012457607f821691505b6020821081036200013a5762000139620000df565b5b50919050565b5f819050815f5260205f209050919050565b5f6020601f8301049050919050565b5f82821b905092915050565b5f600883026200019e7fffffffffffffffffffffffffffffffffffffffffffffffffffffffffffffffff8262000161565b620001aa868362000161565b95508019841693508086168417925050509392505050565b5f819050919050565b5f819050919050565b5f620001f4620001ee620001e884620001c2565b620001cb565b620001c2565b9050919050565b5f819050919050565b6200020f83620001d4565b620002276200021e82620001fb565b8484546200016d565b825550505050565b5f90565b6200023d6200022f565b6200024a81848462000204565b505050565b5b818110156200027157620002655f8262000233565b60018101905062000250565b5050565b601f821115620002c0576200028a8162000140565b620002958462000152565b81016020851015620002a5578190505b620002bd620002b48562000152565b8301826200024f565b50505b505050565b5f82821c905092915050565b5f620002e25f1984600802620002c5565b1980831691505092915050565b5f620002fc8383620002d1565b9150826002028217905092915050565b6200031782620000a8565b67ffffffffffffffff811115620003335762000332620000b2565b5b6200033f82546200010c565b6200034c82828562000275565b5f60209050601f83116001811462000382575f84156200036d578287015190505b620003798582620002ef565b865550620003e8565b601f198416620003928662000140565b5f5b82811015620003bb5784890151825560018201915060208501945060208101905062000394565b86831015620003db5784890151620003d7601f891682620002d1565b8355505b6001600288020188555050505b505050505050565b6133bb80620003fe5f395ff3fe608060405234801561000f575f80fd5b5060043610610140575f3560e01c806367764b26116100b6578063b88d4fde1161007a578063b88d4fde1461039c578063c87b56dd146103b8578063d204c45e146103e8578063d22b2ed014610404578063e985e9c514610420578063f13e83311461045057610140565b806367764b26146102e457806370a0823114610302578063917bb1c11461033257806395d89b4114610362578063a22cb4651461038057610140565b806323b872dd1161010857806323b872dd146101fc57806342842e0e1461021857806350fc4527146102345780636352211e1461026457806365020ce614610294578063663b3e22146102b057610140565b806301ffc9a71461014457806306fdde0314610174578063081812fc14610192578063095ea7b3146101c2578063096113fa146101de575b5f80fd5b61015e60048036038101906101599190612108565b610480565b60405161016b919061214d565b60405180910390f35b61017c610491565b60405161018991906121f0565b60405180910390f35b6101ac60048036038101906101a79190612243565b610520565b6040516101b991906122ad565b60405180910390f35b6101dc60048036038101906101d791906122f0565b610562565b005b6101e6610678565b6040516101f3919061233d565b60405180910390f35b61021660048036038101906102119190612356565b61067e565b005b610232600480360381019061022d9190612356565b6106de565b005b61024e600480360381019061024991906123a6565b6106fd565b60405161025b919061214d565b60405180910390f35b61027e60048036038101906102799190612243565b61071a565b60405161028b91906122ad565b60405180910390f35b6102ae60048036038101906102a991906123a6565b61079e565b005b6102ca60048036038101906102c59190612243565b610864565b6040516102db9594939291906123d1565b60405180910390f35b6102ec610a53565b6040516102f9919061233d565b60405180910390f35b61031c600480360381019061031791906123a6565b610a5e565b604051610329919061233d565b60405180910390f35b61034c600480360381019061034791906122f0565b610b12565b604051610359919061233d565b60405180910390f35b61036a610b3d565b60405161037791906121f0565b60405180910390f35b61039a60048036038101906103959190612461565b610bcd565b005b6103b660048036038101906103b191906125cb565b610be3565b005b6103d260048036038101906103cd9190612243565b610c45565b6040516103df91906121f0565b60405180910390f35b61040260048036038101906103fd91906126e9565b610c57565b005b61041e600480360381019061041991906123a6565b610def565b005b61043a60048036038101906104359190612743565b610eb5565b604051610447919061214d565b60405180910390f35b61046a600480360381019061046591906123a6565b610f43565b604051610477919061214d565b60405180910390f35b5f61048a82610f60565b9050919050565b60605f805461049f906127ae565b80601f01602080910402602001604051908101604052809291908181526020018280546104cb906127ae565b80156105165780601f106104ed57610100808354040283529160200191610516565b820191905f5260205f20905b8154815290600101906020018083116104f957829003601f168201915b5050505050905090565b5f61052a82610fc0565b60045f8381526020019081526020015f205f9054906101000a900473ffffffffffffffffffffffffffffffffffffffff169050919050565b5f61056c8261071a565b90508073ffffffffffffffffffffffffffffffffffffffff168373ffffffffffffffffffffffffffffffffffffffff16036105dc576040517f08c379a00000000000000000000000000000000000000000000000000000000081526004016105d39061284e565b60405180910390fd5b8073ffffffffffffffffffffffffffffffffffffffff166105fb61100b565b73ffffffffffffffffffffffffffffffffffffffff16148061062a57506106298161062461100b565b610eb5565b5b610669576040517f08c379a0000000000000000000000000000000000000000000000000000000008152600401610660906128dc565b60405180910390fd5b6106738383611012565b505050565b60085481565b61068f61068961100b565b826110c8565b6106ce576040517f08c379a00000000000000000000000000000000000000000000000000000000081526004016106c59061296a565b60405180910390fd5b6106d983838361115c565b505050565b6106f883838360405180602001604052805f815250610be3565b505050565b600a602052805f5260405f205f915054906101000a900460ff1681565b5f8061072583611448565b90505f73ffffffffffffffffffffffffffffffffffffffff168173ffffffffffffffffffffffffffffffffffffffff1603610795576040517f08c379a000000000000000000000000000000000000000000000000000000000815260040161078c906129d2565b60405180910390fd5b80915050919050565b8073ffffffffffffffffffffffffffffffffffffffff165f73ffffffffffffffffffffffffffffffffffffffff161461080c576040517f08c379a000000000000000000000000000000000000000000000000000000000815260040161080390612a3a565b60405180910390fd5b6001600a5f8373ffffffffffffffffffffffffffffffffffffffff1673ffffffffffffffffffffffffffffffffffffffff1681526020019081526020015f205f6101000a81548160ff02191690831515021790555050565b600b602052805f5260405f205f91509050805f015f9054906101000a900473ffffffffffffffffffffffffffffffffffffffff16908060010180546108a8906127ae565b80601f01602080910402602001604051908101604052809291908181526020018280546108d4906127ae565b801561091f5780601f106108f65761010080835404028352916020019161091f565b820191905f5260205f20905b81548152906001019060200180831161090257829003601f168201915b505050505090806002018054610934906127ae565b80601f0160208091040260200160405190810160405280929190818152602001828054610960906127ae565b80156109ab5780601f10610982576101008083540402835291602001916109ab565b820191905f5260205f20905b81548152906001019060200180831161098e57829003601f168201915b505050505090806003015f9054906101000a900460ff16908060040180546109d2906127ae565b80601f01602080910402602001604051908101604052809291908181526020018280546109fe906127ae565b8015610a495780601f10610a2057610100808354040283529160200191610a49565b820191905f5260205f20905b815481529060010190602001808311610a2c57829003601f168201915b5050505050905085565b6007805f0154905081565b5f8073ffffffffffffffffffffffffffffffffffffffff168273ffffffffffffffffffffffffffffffffffffffff1603610acd576040517f08c379a0000000000000000000000000000000000000000000000000000000008152600401610ac490612ac8565b60405180910390fd5b60035f8373ffffffffffffffffffffffffffffffffffffffff1673ffffffffffffffffffffffffffffffffffffffff1681526020019081526020015f20549050919050565b600c602052815f5260405f208181548110610b2b575f80fd5b905f5260205f20015f91509150505481565b606060018054610b4c906127ae565b80601f0160208091040260200160405190810160405280929190818152602001828054610b78906127ae565b8015610bc35780601f10610b9a57610100808354040283529160200191610bc3565b820191905f5260205f20905b815481529060010190602001808311610ba657829003601f168201915b5050505050905090565b610bdf610bd861100b565b8383611481565b5050565b610bf4610bee61100b565b836110c8565b610c33576040517f08c379a0000000000000000000000000000000000000000000000000000000008152600401610c2a9061296a565b60405180910390fd5b610c3f848484846115e8565b50505050565b6060610c5082611644565b9050919050565b60011515600a5f3373ffffffffffffffffffffffffffffffffffffffff1673ffffffffffffffffffffffffffffffffffffffff1681526020019081526020015f205f9054906101000a900460ff16151514610ce7576040517f08c379a0000000000000000000000000000000000000000000000000000000008152600401610cde90612b56565b60405180910390fd5b60011515600a5f8473ffffffffffffffffffffffffffffffffffffffff1673ffffffffffffffffffffffffffffffffffffffff1681526020019081526020015f205f9054906101000a900460ff16151514610d77576040517f08c379a0000000000000000000000000000000000000000000000000000000008152600401610d6e90612bbe565b60405180910390fd5b610d808161174e565b610dbf576040517f08c379a0000000000000000000000000000000000000000000000000000000008152600401610db690612c26565b60405180910390fd5b5f610dca600761175f565b9050610dd6600761176b565b610de0838261177f565b610dea818361179c565b505050565b8073ffffffffffffffffffffffffffffffffffffffff165f73ffffffffffffffffffffffffffffffffffffffff1614610e5d576040517f08c379a0000000000000000000000000000000000000000000000000000000008152600401610e5490612a3a565b60405180910390fd5b600160095f8373ffffffffffffffffffffffffffffffffffffffff1673ffffffffffffffffffffffffffffffffffffffff1681526020019081526020015f205f6101000a81548160ff02191690831515021790555050565b5f60055f8473ffffffffffffffffffffffffffffffffffffffff1673ffffffffffffffffffffffffffffffffffffffff1681526020019081526020015f205f8373ffffffffffffffffffffffffffffffffffffffff1673ffffffffffffffffffffffffffffffffffffffff1681526020019081526020015f205f9054906101000a900460ff16905092915050565b6009602052805f5260405f205f915054906101000a900460ff1681565b5f634906490660e01b7bffffffffffffffffffffffffffffffffffffffffffffffffffffffff1916827bffffffffffffffffffffffffffffffffffffffffffffffffffffffff19161480610fb95750610fb88261183e565b5b9050919050565b610fc98161191f565b611008576040517f08c379a0000000000000000000000000000000000000000000000000000000008152600401610fff906129d2565b60405180910390fd5b50565b5f33905090565b8160045f8381526020019081526020015f205f6101000a81548173ffffffffffffffffffffffffffffffffffffffff021916908373ffffffffffffffffffffffffffffffffffffffff160217905550808273ffffffffffffffffffffffffffffffffffffffff166110828361071a565b73ffffffffffffffffffffffffffffffffffffffff167f8c5be1e5ebec7d5bd14f71427d1e84f3dd0314c0f7b2291e5b200ac8c7c3b92560405160405180910390a45050565b5f806110d38361071a565b90508073ffffffffffffffffffffffffffffffffffffffff168473ffffffffffffffffffffffffffffffffffffffff16148061111557506111148185610eb5565b5b8061115357508373ffffffffffffffffffffffffffffffffffffffff1661113b84610520565b73ffffffffffffffffffffffffffffffffffffffff16145b91505092915050565b8273ffffffffffffffffffffffffffffffffffffffff1661117c8261071a565b73ffffffffffffffffffffffffffffffffffffffff16146111d2576040517f08c379a00000000000000000000000000000000000000000000000000000000081526004016111c990612cb4565b60405180910390fd5b5f73ffffffffffffffffffffffffffffffffffffffff168273ffffffffffffffffffffffffffffffffffffffff1603611240576040517f08c379a000000000000000000000000000000000000000000000000000000000815260040161123790612d42565b60405180910390fd5b61124d838383600161195f565b8273ffffffffffffffffffffffffffffffffffffffff1661126d8261071a565b73ffffffffffffffffffffffffffffffffffffffff16146112c3576040517f08c379a00000000000000000000000000000000000000000000000000000000081526004016112ba90612cb4565b60405180910390fd5b60045f8281526020019081526020015f205f6101000a81549073ffffffffffffffffffffffffffffffffffffffff0219169055600160035f8573ffffffffffffffffffffffffffffffffffffffff1673ffffffffffffffffffffffffffffffffffffffff1681526020019081526020015f205f8282540392505081905550600160035f8473ffffffffffffffffffffffffffffffffffffffff1673ffffffffffffffffffffffffffffffffffffffff1681526020019081526020015f205f82825401925050819055508160025f8381526020019081526020015f205f6101000a81548173ffffffffffffffffffffffffffffffffffffffff021916908373ffffffffffffffffffffffffffffffffffffffff160217905550808273ffffffffffffffffffffffffffffffffffffffff168473ffffffffffffffffffffffffffffffffffffffff167fddf252ad1be2c89b69c2b068fc378daa952ba7f163c4a11628f55a4df523b3ef60405160405180910390a46114438383836001611965565b505050565b5f60025f8381526020019081526020015f205f9054906101000a900473ffffffffffffffffffffffffffffffffffffffff169050919050565b8173ffffffffffffffffffffffffffffffffffffffff168373ffffffffffffffffffffffffffffffffffffffff16036114ef576040517f08c379a00000000000000000000000000000000000000000000000000000000081526004016114e690612daa565b60405180910390fd5b8060055f8573ffffffffffffffffffffffffffffffffffffffff1673ffffffffffffffffffffffffffffffffffffffff1681526020019081526020015f205f8473ffffffffffffffffffffffffffffffffffffffff1673ffffffffffffffffffffffffffffffffffffffff1681526020019081526020015f205f6101000a81548160ff0219169083151502179055508173ffffffffffffffffffffffffffffffffffffffff168373ffffffffffffffffffffffffffffffffffffffff167f17307eab39ab6107e8899845ad3d59bd9653f200f220920489ca2b5937696c31836040516115db919061214d565b60405180910390a3505050565b6115f384848461115c565b6115ff8484848461196b565b61163e576040517f08c379a000000000000000000000000000000000000000000000000000000000815260040161163590612e38565b60405180910390fd5b50505050565b606061164f82610fc0565b5f60065f8481526020019081526020015f20805461166c906127ae565b80601f0160208091040260200160405190810160405280929190818152602001828054611698906127ae565b80156116e35780601f106116ba576101008083540402835291602001916116e3565b820191905f5260205f20905b8154815290600101906020018083116116c657829003601f168201915b505050505090505f6116f3611aed565b90505f815103611707578192505050611749565b5f8251111561173b578082604051602001611723929190612e90565b60405160208183030381529060405292505050611749565b61174484611b2a565b925050505b919050565b5f808290505f815111915050919050565b5f815f01549050919050565b6001815f015f828254019250508190555050565b611798828260405180602001604052805f815250611b8f565b5050565b6117a58261191f565b6117e4576040517f08c379a00000000000000000000000000000000000000000000000000000000081526004016117db90612f23565b60405180910390fd5b8060065f8481526020019081526020015f20908161180291906130de565b507ff8e1a15aba9398e019f0b49df1a4fde98ee17ae345cb5f6b5e2c27f5033e8ce782604051611832919061233d565b60405180910390a15050565b5f7f80ac58cd000000000000000000000000000000000000000000000000000000007bffffffffffffffffffffffffffffffffffffffffffffffffffffffff1916827bffffffffffffffffffffffffffffffffffffffffffffffffffffffff1916148061190857507f5b5e139f000000000000000000000000000000000000000000000000000000007bffffffffffffffffffffffffffffffffffffffffffffffffffffffff1916827bffffffffffffffffffffffffffffffffffffffffffffffffffffffff1916145b80611918575061191782611be9565b5b9050919050565b5f8073ffffffffffffffffffffffffffffffffffffffff1661194083611448565b73ffffffffffffffffffffffffffffffffffffffff1614159050919050565b50505050565b50505050565b5f61198b8473ffffffffffffffffffffffffffffffffffffffff16611c52565b15611ae0578373ffffffffffffffffffffffffffffffffffffffff1663150b7a026119b461100b565b8786866040518563ffffffff1660e01b81526004016119d694939291906131ff565b6020604051808303815f875af1925050508015611a1157506040513d601f19601f82011682018060405250810190611a0e919061325d565b60015b611a90573d805f8114611a3f576040519150601f19603f3d011682016040523d82523d5f602084013e611a44565b606091505b505f815103611a88576040517f08c379a0000000000000000000000000000000000000000000000000000000008152600401611a7f90612e38565b60405180910390fd5b805181602001fd5b63150b7a0260e01b7bffffffffffffffffffffffffffffffffffffffffffffffffffffffff1916817bffffffffffffffffffffffffffffffffffffffffffffffffffffffff191614915050611ae5565b600190505b949350505050565b60606040518060400160405280601681526020017f687474703a2f2f6c6f63616c686f73743a383030302f00000000000000000000815250905090565b6060611b3582610fc0565b5f611b3e611aed565b90505f815111611b5c5760405180602001604052805f815250611b87565b80611b6684611c74565b604051602001611b77929190612e90565b6040516020818303038152906040525b915050919050565b611b998383611d3e565b611ba55f84848461196b565b611be4576040517f08c379a0000000000000000000000000000000000000000000000000000000008152600401611bdb90612e38565b60405180910390fd5b505050565b5f7f01ffc9a7000000000000000000000000000000000000000000000000000000007bffffffffffffffffffffffffffffffffffffffffffffffffffffffff1916827bffffffffffffffffffffffffffffffffffffffffffffffffffffffff1916149050919050565b5f808273ffffffffffffffffffffffffffffffffffffffff163b119050919050565b60605f6001611c8284611f51565b0190505f8167ffffffffffffffff811115611ca057611c9f6124a7565b5b6040519080825280601f01601f191660200182016040528015611cd25781602001600182028036833780820191505090505b5090505f82602001820190505b600115611d33578080600190039150507f3031323334353637383961626364656600000000000000000000000000000000600a86061a8153600a8581611d2857611d27613288565b5b0494505f8503611cdf575b819350505050919050565b5f73ffffffffffffffffffffffffffffffffffffffff168273ffffffffffffffffffffffffffffffffffffffff1603611dac576040517f08c379a0000000000000000000000000000000000000000000000000000000008152600401611da3906132ff565b60405180910390fd5b611db58161191f565b15611df5576040517f08c379a0000000000000000000000000000000000000000000000000000000008152600401611dec90613367565b60405180910390fd5b611e025f8383600161195f565b611e0b8161191f565b15611e4b576040517f08c379a0000000000000000000000000000000000000000000000000000000008152600401611e4290613367565b60405180910390fd5b600160035f8473ffffffffffffffffffffffffffffffffffffffff1673ffffffffffffffffffffffffffffffffffffffff1681526020019081526020015f205f82825401925050819055508160025f8381526020019081526020015f205f6101000a81548173ffffffffffffffffffffffffffffffffffffffff021916908373ffffffffffffffffffffffffffffffffffffffff160217905550808273ffffffffffffffffffffffffffffffffffffffff165f73ffffffffffffffffffffffffffffffffffffffff167fddf252ad1be2c89b69c2b068fc378daa952ba7f163c4a11628f55a4df523b3ef60405160405180910390a4611f4d5f83836001611965565b5050565b5f805f90507a184f03e93ff9f4daa797ed6e38ed64bf6a1f0100000000000000008310611fad577a184f03e93ff9f4daa797ed6e38ed64bf6a1f0100000000000000008381611fa357611fa2613288565b5b0492506040810190505b6d04ee2d6d415b85acef81000000008310611fea576d04ee2d6d415b85acef81000000008381611fe057611fdf613288565b5b0492506020810190505b662386f26fc10000831061201957662386f26fc10000838161200f5761200e613288565b5b0492506010810190505b6305f5e1008310612042576305f5e100838161203857612037613288565b5b0492506008810190505b612710831061206757612710838161205d5761205c613288565b5b0492506004810190505b6064831061208a57606483816120805761207f613288565b5b0492506002810190505b600a8310612099576001810190505b80915050919050565b5f604051905090565b5f80fd5b5f80fd5b5f7fffffffff0000000000000000000000000000000000000000000000000000000082169050919050565b6120e7816120b3565b81146120f1575f80fd5b50565b5f81359050612102816120de565b92915050565b5f6020828403121561211d5761211c6120ab565b5b5f61212a848285016120f4565b91505092915050565b5f8115159050919050565b61214781612133565b82525050565b5f6020820190506121605f83018461213e565b92915050565b5f81519050919050565b5f82825260208201905092915050565b5f5b8381101561219d578082015181840152602081019050612182565b5f8484015250505050565b5f601f19601f8301169050919050565b5f6121c282612166565b6121cc8185612170565b93506121dc818560208601612180565b6121e5816121a8565b840191505092915050565b5f6020820190508181035f83015261220881846121b8565b905092915050565b5f819050919050565b61222281612210565b811461222c575f80fd5b50565b5f8135905061223d81612219565b92915050565b5f60208284031215612258576122576120ab565b5b5f6122658482850161222f565b91505092915050565b5f73ffffffffffffffffffffffffffffffffffffffff82169050919050565b5f6122978261226e565b9050919050565b6122a78161228d565b82525050565b5f6020820190506122c05f83018461229e565b92915050565b6122cf8161228d565b81146122d9575f80fd5b50565b5f813590506122ea816122c6565b92915050565b5f8060408385031215612306576123056120ab565b5b5f612313858286016122dc565b92505060206123248582860161222f565b9150509250929050565b61233781612210565b82525050565b5f6020820190506123505f83018461232e565b92915050565b5f805f6060848603121561236d5761236c6120ab565b5b5f61237a868287016122dc565b935050602061238b868287016122dc565b925050604061239c8682870161222f565b9150509250925092565b5f602082840312156123bb576123ba6120ab565b5b5f6123c8848285016122dc565b91505092915050565b5f60a0820190506123e45f83018861229e565b81810360208301526123f681876121b8565b9050818103604083015261240a81866121b8565b9050612419606083018561213e565b818103608083015261242b81846121b8565b90509695505050505050565b61244081612133565b811461244a575f80fd5b50565b5f8135905061245b81612437565b92915050565b5f8060408385031215612477576124766120ab565b5b5f612484858286016122dc565b92505060206124958582860161244d565b9150509250929050565b5f80fd5b5f80fd5b7f4e487b71000000000000000000000000000000000000000000000000000000005f52604160045260245ffd5b6124dd826121a8565b810181811067ffffffffffffffff821117156124fc576124fb6124a7565b5b80604052505050565b5f61250e6120a2565b905061251a82826124d4565b919050565b5f67ffffffffffffffff821115612539576125386124a7565b5b612542826121a8565b9050602081019050919050565b828183375f83830152505050565b5f61256f61256a8461251f565b612505565b90508281526020810184848401111561258b5761258a6124a3565b5b61259684828561254f565b509392505050565b5f82601f8301126125b2576125b161249f565b5b81356125c284826020860161255d565b91505092915050565b5f805f80608085870312156125e3576125e26120ab565b5b5f6125f0878288016122dc565b9450506020612601878288016122dc565b93505060406126128782880161222f565b925050606085013567ffffffffffffffff811115612633576126326120af565b5b61263f8782880161259e565b91505092959194509250565b5f67ffffffffffffffff821115612665576126646124a7565b5b61266e826121a8565b9050602081019050919050565b5f61268d6126888461264b565b612505565b9050828152602081018484840111156126a9576126a86124a3565b5b6126b484828561254f565b509392505050565b5f82601f8301126126d0576126cf61249f565b5b81356126e084826020860161267b565b91505092915050565b5f80604083850312156126ff576126fe6120ab565b5b5f61270c858286016122dc565b925050602083013567ffffffffffffffff81111561272d5761272c6120af565b5b612739858286016126bc565b9150509250929050565b5f8060408385031215612759576127586120ab565b5b5f612766858286016122dc565b9250506020612777858286016122dc565b9150509250929050565b7f4e487b71000000000000000000000000000000000000000000000000000000005f52602260045260245ffd5b5f60028204905060018216806127c557607f821691505b6020821081036127d8576127d7612781565b5b50919050565b7f4552433732313a20617070726f76616c20746f2063757272656e74206f776e655f8201527f7200000000000000000000000000000000000000000000000000000000000000602082015250565b5f612838602183612170565b9150612843826127de565b604082019050919050565b5f6020820190508181035f8301526128658161282c565b9050919050565b7f4552433732313a20617070726f76652063616c6c6572206973206e6f7420746f5f8201527f6b656e206f776e6572206f7220617070726f76656420666f7220616c6c000000602082015250565b5f6128c6603d83612170565b91506128d18261286c565b604082019050919050565b5f6020820190508181035f8301526128f3816128ba565b9050919050565b7f4552433732313a2063616c6c6572206973206e6f7420746f6b656e206f776e655f8201527f72206f7220617070726f76656400000000000000000000000000000000000000602082015250565b5f612954602d83612170565b915061295f826128fa565b604082019050919050565b5f6020820190508181035f83015261298181612948565b9050919050565b7f4552433732313a20696e76616c696420746f6b656e20494400000000000000005f82015250565b5f6129bc601883612170565b91506129c782612988565b602082019050919050565b5f6020820190508181035f8301526129e9816129b0565b9050919050565b7f6e65656420746f2073656e6420612076616c69642061646472657373000000005f82015250565b5f612a24601c83612170565b9150612a2f826129f0565b602082019050919050565b5f6020820190508181035f830152612a5181612a18565b9050919050565b7f4552433732313a2061646472657373207a65726f206973206e6f7420612076615f8201527f6c6964206f776e65720000000000000000000000000000000000000000000000602082015250565b5f612ab2602983612170565b9150612abd82612a58565b604082019050919050565b5f6020820190508181035f830152612adf81612aa6565b9050919050565b7f6f6e6c7920496e647576697475616c732063616e2075736520746869732066755f8201527f6e6374696f6e0000000000000000000000000000000000000000000000000000602082015250565b5f612b40602683612170565b9150612b4b82612ae6565b604082019050919050565b5f6020820190508181035f830152612b6d81612b34565b9050919050565b7f746f2061646472657373206d757374206265206120496e647576697475616c735f82015250565b5f612ba8602083612170565b9150612bb382612b74565b602082019050919050565b5f6020820190508181035f830152612bd581612b9c565b9050919050565b7f496e70757420737472696e6720697320656d70747900000000000000000000005f82015250565b5f612c10601583612170565b9150612c1b82612bdc565b602082019050919050565b5f6020820190508181035f830152612c3d81612c04565b9050919050565b7f4552433732313a207472616e736665722066726f6d20696e636f7272656374205f8201527f6f776e6572000000000000000000000000000000000000000000000000000000602082015250565b5f612c9e602583612170565b9150612ca982612c44565b604082019050919050565b5f6020820190508181035f830152612ccb81612c92565b9050919050565b7f4552433732313a207472616e7366657220746f20746865207a65726f206164645f8201527f7265737300000000000000000000000000000000000000000000000000000000602082015250565b5f612d2c602483612170565b9150612d3782612cd2565b604082019050919050565b5f6020820190508181035f830152612d5981612d20565b9050919050565b7f4552433732313a20617070726f766520746f2063616c6c6572000000000000005f82015250565b5f612d94601983612170565b9150612d9f82612d60565b602082019050919050565b5f6020820190508181035f830152612dc181612d88565b9050919050565b7f4552433732313a207472616e7366657220746f206e6f6e2045524337323152655f8201527f63656976657220696d706c656d656e7465720000000000000000000000000000602082015250565b5f612e22603283612170565b9150612e2d82612dc8565b604082019050919050565b5f6020820190508181035f830152612e4f81612e16565b9050919050565b5f81905092915050565b5f612e6a82612166565b612e748185612e56565b9350612e84818560208601612180565b80840191505092915050565b5f612e9b8285612e60565b9150612ea78284612e60565b91508190509392505050565b7f45524337323155524953746f726167653a2055524920736574206f66206e6f6e5f8201527f6578697374656e7420746f6b656e000000000000000000000000000000000000602082015250565b5f612f0d602e83612170565b9150612f1882612eb3565b604082019050919050565b5f6020820190508181035f830152612f3a81612f01565b9050919050565b5f819050815f5260205f209050919050565b5f6020601f8301049050919050565b5f82821b905092915050565b5f60088302612f9d7fffffffffffffffffffffffffffffffffffffffffffffffffffffffffffffffff82612f62565b612fa78683612f62565b95508019841693508086168417925050509392505050565b5f819050919050565b5f612fe2612fdd612fd884612210565b612fbf565b612210565b9050919050565b5f819050919050565b612ffb83612fc8565b61300f61300782612fe9565b848454612f6e565b825550505050565b5f90565b613023613017565b61302e818484612ff2565b505050565b5b81811015613051576130465f8261301b565b600181019050613034565b5050565b601f8211156130965761306781612f41565b61307084612f53565b8101602085101561307f578190505b61309361308b85612f53565b830182613033565b50505b505050565b5f82821c905092915050565b5f6130b65f198460080261309b565b1980831691505092915050565b5f6130ce83836130a7565b9150826002028217905092915050565b6130e782612166565b67ffffffffffffffff811115613100576130ff6124a7565b5b61310a82546127ae565b613115828285613055565b5f60209050601f831160018114613146575f8415613134578287015190505b61313e85826130c3565b8655506131a5565b601f19841661315486612f41565b5f5b8281101561317b57848901518255600182019150602085019450602081019050613156565b868310156131985784890151613194601f8916826130a7565b8355505b6001600288020188555050505b505050505050565b5f81519050919050565b5f82825260208201905092915050565b5f6131d1826131ad565b6131db81856131b7565b93506131eb818560208601612180565b6131f4816121a8565b840191505092915050565b5f6080820190506132125f83018761229e565b61321f602083018661229e565b61322c604083018561232e565b818103606083015261323e81846131c7565b905095945050505050565b5f81519050613257816120de565b92915050565b5f60208284031215613272576132716120ab565b5b5f61327f84828501613249565b91505092915050565b7f4e487b71000000000000000000000000000000000000000000000000000000005f52601260045260245ffd5b7f4552433732313a206d696e7420746f20746865207a65726f20616464726573735f82015250565b5f6132e9602083612170565b91506132f4826132b5565b602082019050919050565b5f6020820190508181035f830152613316816132dd565b9050919050565b7f4552433732313a20746f6b656e20616c7265616479206d696e746564000000005f82015250565b5f613351601c83612170565b915061335c8261331d565b602082019050919050565b5f6020820190508181035f83015261337e81613345565b905091905056fea2646970667358221220f583a799dc1cd8ca960c860795bf010c5d5f0e4b4c6e44ad66061db418281e0c64736f6c63430008150033",
  "immutableReferences": {},
  "source": "// SPDX-License-Identifier: MIT\r\npragma solidity 0.8.21;\r\n\r\nimport \"@openzeppelin/contracts/token/ERC721/ERC721.sol\";\r\nimport \"@openzeppelin/contracts/token/ERC721/extensions/ERC721URIStorage.sol\";\r\nimport \"@openzeppelin/contracts/utils/Counters.sol\";\r\n\r\ncontract CertificateNFT is ERC721, ERC721URIStorage {\r\n    using Counters for Counters.Counter;\r\n\r\n    Counters.Counter public certificateCounter;\r\n    uint256 public induvitualCertificateCounter;\r\n\r\n    struct Certificate {\r\n        address owner;\r\n        string name;\r\n        string data;\r\n        bool validated;\r\n        string ipfsAddress;\r\n    }\r\n\r\n    // account data\r\n    mapping(address => bool) public GovernmentAccounts;\r\n    mapping(address => bool) public InduvitualsAccounts;\r\n\r\n    // certificates details data\r\n    mapping(uint256 => Certificate) public certificates;\r\n    mapping(address => uint256[]) public ownerCertificates;\r\n\r\n    // Events to log important contract actions\r\n    event CertificateUploaded(\r\n        address indexed owner,\r\n        uint256 indexed certificateId\r\n    );\r\n    event CertificateValidated(uint256 indexed certificateId, bool validated);\r\n\r\n    // ====== ERC-721 NFT token name, symbol and baseURI defined =====\r\n    constructor() ERC721(\"CertificateNFT\", \"CNFT\") {}\r\n\r\n    function _baseURI() internal pure override returns (string memory) {\r\n        return \"http://localhost:8000/\";\r\n    }\r\n\r\n    // ====== allocate the role for the given address =====\r\n    function grantGovernmentPrivilege(address _account) public {\r\n        require(address(0) == _account, \"need to send a valid address\");\r\n        GovernmentAccounts[_account] = true;\r\n    }\r\n\r\n    function grantInduvitualsPrivilege(address _account) public {\r\n        require(address(0) == _account, \"need to send a valid address\");\r\n        InduvitualsAccounts[_account] = true;\r\n    }\r\n\r\n    // ===== based on their role specific task they can do =====\r\n    modifier onlyGovernment() {\r\n        require(\r\n            GovernmentAccounts[msg.sender] == true,\r\n            \"only government authority can use this function\"\r\n        );\r\n        _;\r\n    }\r\n\r\n    modifier onlyInduvituals() {\r\n        require(\r\n            InduvitualsAccounts[msg.sender] == true,\r\n            \"only Induvituals can use this function\"\r\n        );\r\n        _;\r\n    }\r\n\r\n    function isStringValid(string memory _str) internal pure returns (bool) {\r\n        bytes memory strBytes = bytes(_str);\r\n        return strBytes.length > 0;\r\n    }\r\n\r\n    // Induvituals functionalities\r\n    function safeMint(address _to, string memory URI) public onlyInduvituals {\r\n        require(\r\n            InduvitualsAccounts[_to] == true,\r\n            \"to address must be a Induvituals\"\r\n        );\r\n        require(isStringValid(URI), \"Input string is empty\");\r\n        uint256 tokenId = certificateCounter.current();\r\n        certificateCounter.increment();\r\n        _safeMint(_to, tokenId);\r\n\r\n        // Set the metadata URI for the NFT\r\n        _setTokenURI(tokenId, URI);\r\n    }\r\n\r\n    // Government functionalities\r\n\r\n    // The following functions are overrides required by Solidity.\r\n\r\n    function _burn(uint256 tokenId)\r\n        internal\r\n        override(ERC721, ERC721URIStorage)\r\n        onlyInduvituals\r\n    {\r\n        super._burn(tokenId);\r\n    }\r\n\r\n    function tokenURI(uint256 tokenId)\r\n        public\r\n        view\r\n        override(ERC721, ERC721URIStorage)\r\n        returns (string memory)\r\n    {\r\n        return super.tokenURI(tokenId);\r\n    }\r\n\r\n    function supportsInterface(bytes4 interfaceId)\r\n        public\r\n        view\r\n        override(ERC721, ERC721URIStorage)\r\n        returns (bool)\r\n    {\r\n        return super.supportsInterface(interfaceId);\r\n    }\r\n}\r\n",
  "sourcePath": "C:\\Users\\TENSH_KKT\\Documents\\GitHub\\HackOdisha-3.0-Tech-Creed\\contracts\\CertificateNFT.sol",
  "compiler": {
    "name": "solc",
    "version": "0.8.21+commit.d9974bed.Emscripten.clang"
  },
  "schemaVersion": "3.4.15",
  "updatedAt": "2023-09-09T19:36:07.576Z",
  "devdoc": {
    "events": {
      "Approval(address,address,uint256)": {
        "details": "Emitted when `owner` enables `approved` to manage the `tokenId` token."
      },
      "ApprovalForAll(address,address,bool)": {
        "details": "Emitted when `owner` enables or disables (`approved`) `operator` to manage all of its assets."
      },
      "BatchMetadataUpdate(uint256,uint256)": {
        "details": "This event emits when the metadata of a range of tokens is changed. So that the third-party platforms such as NFT market could timely update the images and related attributes of the NFTs."
      },
      "MetadataUpdate(uint256)": {
        "details": "This event emits when the metadata of a token is changed. So that the third-party platforms such as NFT market could timely update the images and related attributes of the NFT."
      },
      "Transfer(address,address,uint256)": {
        "details": "Emitted when `tokenId` token is transferred from `from` to `to`."
      }
    },
    "kind": "dev",
    "methods": {
      "approve(address,uint256)": {
        "details": "See {IERC721-approve}."
      },
      "balanceOf(address)": {
        "details": "See {IERC721-balanceOf}."
      },
      "getApproved(uint256)": {
        "details": "See {IERC721-getApproved}."
      },
      "isApprovedForAll(address,address)": {
        "details": "See {IERC721-isApprovedForAll}."
      },
      "name()": {
        "details": "See {IERC721Metadata-name}."
      },
      "ownerOf(uint256)": {
        "details": "See {IERC721-ownerOf}."
      },
      "safeTransferFrom(address,address,uint256)": {
        "details": "See {IERC721-safeTransferFrom}."
      },
      "safeTransferFrom(address,address,uint256,bytes)": {
        "details": "See {IERC721-safeTransferFrom}."
      },
      "setApprovalForAll(address,bool)": {
        "details": "See {IERC721-setApprovalForAll}."
      },
      "symbol()": {
        "details": "See {IERC721Metadata-symbol}."
      },
      "transferFrom(address,address,uint256)": {
        "details": "See {IERC721-transferFrom}."
      }
    },
    "version": 1
  },
  "userdoc": {
    "kind": "user",
    "methods": {},
    "version": 1
  }
}