{
  "contractName": "SecureDocsToken",
  "abi": [
    {
      "inputs": [],
      "stateMutability": "nonpayable",
      "type": "constructor"
    },
    {
      "anonymous": false,
      "inputs": [
        {
          "indexed": true,
          "internalType": "address",
          "name": "owner",
          "type": "address"
        },
        {
          "indexed": true,
          "internalType": "address",
          "name": "approved",
          "type": "address"
        },
        {
          "indexed": true,
          "internalType": "uint256",
          "name": "tokenId",
          "type": "uint256"
        }
      ],
      "name": "Approval",
      "type": "event"
    },
    {
      "anonymous": false,
      "inputs": [
        {
          "indexed": true,
          "internalType": "address",
          "name": "owner",
          "type": "address"
        },
        {
          "indexed": true,
          "internalType": "address",
          "name": "operator",
          "type": "address"
        },
        {
          "indexed": false,
          "internalType": "bool",
          "name": "approved",
          "type": "bool"
        }
      ],
      "name": "ApprovalForAll",
      "type": "event"
    },
    {
      "anonymous": false,
      "inputs": [
        {
          "indexed": false,
          "internalType": "uint256",
          "name": "_fromTokenId",
          "type": "uint256"
        },
        {
          "indexed": false,
          "internalType": "uint256",
          "name": "_toTokenId",
          "type": "uint256"
        }
      ],
      "name": "BatchMetadataUpdate",
      "type": "event"
    },
    {
      "anonymous": false,
      "inputs": [
        {
          "indexed": true,
          "internalType": "address",
          "name": "owner",
          "type": "address"
        },
        {
          "indexed": true,
          "internalType": "uint256",
          "name": "certificateId",
          "type": "uint256"
        }
      ],
      "name": "CertificateUploaded",
      "type": "event"
    },
    {
      "anonymous": false,
      "inputs": [
        {
          "indexed": true,
          "internalType": "uint256",
          "name": "certificateId",
          "type": "uint256"
        },
        {
          "indexed": false,
          "internalType": "bool",
          "name": "validated",
          "type": "bool"
        }
      ],
      "name": "CertificateValidated",
      "type": "event"
    },
    {
      "anonymous": false,
      "inputs": [
        {
          "indexed": true,
          "internalType": "address",
          "name": "owner",
          "type": "address"
        },
        {
          "indexed": false,
          "internalType": "uint256",
          "name": "tokenId",
          "type": "uint256"
        },
        {
          "indexed": false,
          "internalType": "bool",
          "name": "added",
          "type": "bool"
        }
      ],
      "name": "DigitalLockerUpdated",
      "type": "event"
    },
    {
      "anonymous": false,
      "inputs": [
        {
          "indexed": true,
          "internalType": "uint256",
          "name": "requestId",
          "type": "uint256"
        },
        {
          "indexed": true,
          "internalType": "address",
          "name": "requester",
          "type": "address"
        },
        {
          "indexed": true,
          "internalType": "address",
          "name": "governmentAddress",
          "type": "address"
        },
        {
          "indexed": false,
          "internalType": "uint256",
          "name": "tokenId",
          "type": "uint256"
        }
      ],
      "name": "DocumentVerificationRequested",
      "type": "event"
    },
    {
      "anonymous": false,
      "inputs": [
        {
          "indexed": true,
          "internalType": "uint256",
          "name": "requestId",
          "type": "uint256"
        },
        {
          "indexed": true,
          "internalType": "address",
          "name": "requester",
          "type": "address"
        },
        {
          "indexed": false,
          "internalType": "bool",
          "name": "_isValid",
          "type": "bool"
        }
      ],
      "name": "DocumentVerificationResult",
      "type": "event"
    },
    {
      "anonymous": false,
      "inputs": [
        {
          "indexed": false,
          "internalType": "uint256",
          "name": "_tokenId",
          "type": "uint256"
        }
      ],
      "name": "MetadataUpdate",
      "type": "event"
    },
    {
      "anonymous": false,
      "inputs": [
        {
          "indexed": true,
          "internalType": "address",
          "name": "ownerAddress",
          "type": "address"
        },
        {
          "indexed": false,
          "internalType": "uint256",
          "name": "price",
          "type": "uint256"
        }
      ],
      "name": "PropertyListed",
      "type": "event"
    },
    {
      "anonymous": false,
      "inputs": [
        {
          "indexed": false,
          "internalType": "address",
          "name": "oldOwner",
          "type": "address"
        },
        {
          "indexed": true,
          "internalType": "address",
          "name": "newOwner",
          "type": "address"
        },
        {
          "indexed": false,
          "internalType": "uint256",
          "name": "_price",
          "type": "uint256"
        },
        {
          "indexed": false,
          "internalType": "uint256",
          "name": "tokenId",
          "type": "uint256"
        }
      ],
      "name": "PropertyPurchasedFromMarketplace",
      "type": "event"
    },
    {
      "anonymous": false,
      "inputs": [
        {
          "indexed": true,
          "internalType": "uint256",
          "name": "tokenId",
          "type": "uint256"
        },
        {
          "indexed": true,
          "internalType": "address",
          "name": "from",
          "type": "address"
        },
        {
          "indexed": true,
          "internalType": "address",
          "name": "to",
          "type": "address"
        }
      ],
      "name": "PropertyTransferred",
      "type": "event"
    },
    {
      "anonymous": false,
      "inputs": [
        {
          "indexed": true,
          "internalType": "address",
          "name": "from",
          "type": "address"
        },
        {
          "indexed": true,
          "internalType": "address",
          "name": "to",
          "type": "address"
        },
        {
          "indexed": true,
          "internalType": "uint256",
          "name": "tokenId",
          "type": "uint256"
        }
      ],
      "name": "Transfer",
      "type": "event"
    },
    {
      "inputs": [
        {
          "internalType": "address",
          "name": "",
          "type": "address"
        }
      ],
      "name": "GovernmentAccounts",
      "outputs": [
        {
          "internalType": "bool",
          "name": "",
          "type": "bool"
        }
      ],
      "stateMutability": "view",
      "type": "function",
      "constant": true
    },
    {
      "inputs": [
        {
          "internalType": "address",
          "name": "",
          "type": "address"
        }
      ],
      "name": "InduvitualsAccounts",
      "outputs": [
        {
          "internalType": "bool",
          "name": "",
          "type": "bool"
        }
      ],
      "stateMutability": "view",
      "type": "function",
      "constant": true
    },
    {
      "inputs": [
        {
          "internalType": "address",
          "name": "to",
          "type": "address"
        },
        {
          "internalType": "uint256",
          "name": "tokenId",
          "type": "uint256"
        }
      ],
      "name": "approve",
      "outputs": [],
      "stateMutability": "nonpayable",
      "type": "function"
    },
    {
      "inputs": [
        {
          "internalType": "address",
          "name": "owner",
          "type": "address"
        }
      ],
      "name": "balanceOf",
      "outputs": [
        {
          "internalType": "uint256",
          "name": "",
          "type": "uint256"
        }
      ],
      "stateMutability": "view",
      "type": "function",
      "constant": true
    },
    {
      "inputs": [],
      "name": "certificateCounter",
      "outputs": [
        {
          "internalType": "uint256",
          "name": "_value",
          "type": "uint256"
        }
      ],
      "stateMutability": "view",
      "type": "function",
      "constant": true
    },
    {
      "inputs": [
        {
          "internalType": "address",
          "name": "",
          "type": "address"
        }
      ],
      "name": "certificates",
      "outputs": [
        {
          "internalType": "string",
          "name": "ownerName",
          "type": "string"
        },
        {
          "internalType": "string",
          "name": "docName",
          "type": "string"
        },
        {
          "internalType": "string",
          "name": "data",
          "type": "string"
        },
        {
          "internalType": "bool",
          "name": "validated",
          "type": "bool"
        },
        {
          "internalType": "uint256",
          "name": "tokenId",
          "type": "uint256"
        },
        {
          "internalType": "string",
          "name": "URI",
          "type": "string"
        }
      ],
      "stateMutability": "view",
      "type": "function",
      "constant": true
    },
    {
      "inputs": [
        {
          "internalType": "uint256",
          "name": "tokenId",
          "type": "uint256"
        }
      ],
      "name": "getApproved",
      "outputs": [
        {
          "internalType": "address",
          "name": "",
          "type": "address"
        }
      ],
      "stateMutability": "view",
      "type": "function",
      "constant": true
    },
    {
      "inputs": [
        {
          "internalType": "address",
          "name": "owner",
          "type": "address"
        },
        {
          "internalType": "address",
          "name": "operator",
          "type": "address"
        }
      ],
      "name": "isApprovedForAll",
      "outputs": [
        {
          "internalType": "bool",
          "name": "",
          "type": "bool"
        }
      ],
      "stateMutability": "view",
      "type": "function",
      "constant": true
    },
    {
      "inputs": [],
      "name": "name",
      "outputs": [
        {
          "internalType": "string",
          "name": "",
          "type": "string"
        }
      ],
      "stateMutability": "view",
      "type": "function",
      "constant": true
    },
    {
      "inputs": [
        {
          "internalType": "uint256",
          "name": "tokenId",
          "type": "uint256"
        }
      ],
      "name": "ownerOf",
      "outputs": [
        {
          "internalType": "address",
          "name": "",
          "type": "address"
        }
      ],
      "stateMutability": "view",
      "type": "function",
      "constant": true
    },
    {
      "inputs": [
        {
          "internalType": "uint256",
          "name": "",
          "type": "uint256"
        }
      ],
      "name": "propertyListings",
      "outputs": [
        {
          "internalType": "address",
          "name": "owner",
          "type": "address"
        },
        {
          "internalType": "string",
          "name": "ownerName",
          "type": "string"
        },
        {
          "internalType": "uint256",
          "name": "price",
          "type": "uint256"
        },
        {
          "internalType": "string",
          "name": "docName",
          "type": "string"
        },
        {
          "internalType": "string",
          "name": "data",
          "type": "string"
        },
        {
          "internalType": "bool",
          "name": "validated",
          "type": "bool"
        },
        {
          "internalType": "string",
          "name": "description",
          "type": "string"
        },
        {
          "internalType": "bool",
          "name": "isActive",
          "type": "bool"
        },
        {
          "internalType": "uint256",
          "name": "tokenId",
          "type": "uint256"
        }
      ],
      "stateMutability": "view",
      "type": "function",
      "constant": true
    },
    {
      "inputs": [
        {
          "internalType": "address",
          "name": "from",
          "type": "address"
        },
        {
          "internalType": "address",
          "name": "to",
          "type": "address"
        },
        {
          "internalType": "uint256",
          "name": "tokenId",
          "type": "uint256"
        }
      ],
      "name": "safeTransferFrom",
      "outputs": [],
      "stateMutability": "nonpayable",
      "type": "function"
    },
    {
      "inputs": [
        {
          "internalType": "address",
          "name": "from",
          "type": "address"
        },
        {
          "internalType": "address",
          "name": "to",
          "type": "address"
        },
        {
          "internalType": "uint256",
          "name": "tokenId",
          "type": "uint256"
        },
        {
          "internalType": "bytes",
          "name": "data",
          "type": "bytes"
        }
      ],
      "name": "safeTransferFrom",
      "outputs": [],
      "stateMutability": "nonpayable",
      "type": "function"
    },
    {
      "inputs": [
        {
          "internalType": "address",
          "name": "operator",
          "type": "address"
        },
        {
          "internalType": "bool",
          "name": "approved",
          "type": "bool"
        }
      ],
      "name": "setApprovalForAll",
      "outputs": [],
      "stateMutability": "nonpayable",
      "type": "function"
    },
    {
      "inputs": [],
      "name": "symbol",
      "outputs": [
        {
          "internalType": "string",
          "name": "",
          "type": "string"
        }
      ],
      "stateMutability": "view",
      "type": "function",
      "constant": true
    },
    {
      "inputs": [
        {
          "internalType": "address",
          "name": "from",
          "type": "address"
        },
        {
          "internalType": "address",
          "name": "to",
          "type": "address"
        },
        {
          "internalType": "uint256",
          "name": "tokenId",
          "type": "uint256"
        }
      ],
      "name": "transferFrom",
      "outputs": [],
      "stateMutability": "nonpayable",
      "type": "function"
    },
    {
      "inputs": [],
      "name": "verificationRequestId",
      "outputs": [
        {
          "internalType": "uint256",
          "name": "",
          "type": "uint256"
        }
      ],
      "stateMutability": "view",
      "type": "function",
      "constant": true
    },
    {
      "inputs": [
        {
          "internalType": "uint256",
          "name": "",
          "type": "uint256"
        }
      ],
      "name": "verificationRequests",
      "outputs": [
        {
          "internalType": "address",
          "name": "requester",
          "type": "address"
        },
        {
          "internalType": "address",
          "name": "governmentAddress",
          "type": "address"
        },
        {
          "internalType": "uint256",
          "name": "tokenId",
          "type": "uint256"
        },
        {
          "internalType": "bool",
          "name": "isVerified",
          "type": "bool"
        }
      ],
      "stateMutability": "view",
      "type": "function",
      "constant": true
    },
    {
      "inputs": [
        {
          "internalType": "address",
          "name": "_account",
          "type": "address"
        }
      ],
      "name": "grantGovernmentPrivilege",
      "outputs": [],
      "stateMutability": "nonpayable",
      "type": "function"
    },
    {
      "inputs": [
        {
          "internalType": "address",
          "name": "_account",
          "type": "address"
        }
      ],
      "name": "grantInduvitualsPrivilege",
      "outputs": [],
      "stateMutability": "nonpayable",
      "type": "function"
    },
    {
      "inputs": [
        {
          "internalType": "address",
          "name": "_to",
          "type": "address"
        },
        {
          "internalType": "string",
          "name": "_ownerName",
          "type": "string"
        },
        {
          "internalType": "string",
          "name": "_docName",
          "type": "string"
        },
        {
          "internalType": "string",
          "name": "_data",
          "type": "string"
        },
        {
          "internalType": "string",
          "name": "_URI",
          "type": "string"
        }
      ],
      "name": "mintDocument",
      "outputs": [],
      "stateMutability": "nonpayable",
      "type": "function"
    },
    {
      "inputs": [
        {
          "internalType": "uint256",
          "name": "_tokenId",
          "type": "uint256"
        },
        {
          "internalType": "uint256",
          "name": "_price",
          "type": "uint256"
        },
        {
          "internalType": "string",
          "name": "_description",
          "type": "string"
        }
      ],
      "name": "createPropertyListing",
      "outputs": [],
      "stateMutability": "nonpayable",
      "type": "function"
    },
    {
      "inputs": [
        {
          "internalType": "address",
          "name": "_to",
          "type": "address"
        },
        {
          "internalType": "uint256",
          "name": "_tokenId",
          "type": "uint256"
        }
      ],
      "name": "setApprovalForToken",
      "outputs": [],
      "stateMutability": "nonpayable",
      "type": "function"
    },
    {
      "inputs": [
        {
          "internalType": "uint256",
          "name": "_listedId",
          "type": "uint256"
        },
        {
          "internalType": "string",
          "name": "_newOwnerName",
          "type": "string"
        },
        {
          "internalType": "string",
          "name": "_newURI",
          "type": "string"
        }
      ],
      "name": "purchaseProperty",
      "outputs": [],
      "stateMutability": "payable",
      "type": "function",
      "payable": true
    },
    {
      "inputs": [
        {
          "internalType": "uint256",
          "name": "_tokenId",
          "type": "uint256"
        }
      ],
      "name": "addToDigitalLocker",
      "outputs": [],
      "stateMutability": "nonpayable",
      "type": "function"
    },
    {
      "inputs": [
        {
          "internalType": "uint256",
          "name": "_tokenId",
          "type": "uint256"
        }
      ],
      "name": "removeFromDigitalLocker",
      "outputs": [],
      "stateMutability": "nonpayable",
      "type": "function"
    },
    {
      "inputs": [
        {
          "internalType": "address",
          "name": "_owner",
          "type": "address"
        },
        {
          "internalType": "uint256",
          "name": "_tokenId",
          "type": "uint256"
        }
      ],
      "name": "isInDigitalLocker",
      "outputs": [
        {
          "internalType": "bool",
          "name": "",
          "type": "bool"
        }
      ],
      "stateMutability": "view",
      "type": "function",
      "constant": true
    },
    {
      "inputs": [
        {
          "internalType": "uint256",
          "name": "_tokenId",
          "type": "uint256"
        },
        {
          "internalType": "address",
          "name": "_govAddress",
          "type": "address"
        }
      ],
      "name": "requestDocumentVerification",
      "outputs": [],
      "stateMutability": "nonpayable",
      "type": "function"
    },
    {
      "inputs": [
        {
          "internalType": "uint256",
          "name": "_requestId",
          "type": "uint256"
        },
        {
          "internalType": "bool",
          "name": "_isValid",
          "type": "bool"
        }
      ],
      "name": "validateDocumentVerification",
      "outputs": [],
      "stateMutability": "nonpayable",
      "type": "function"
    },
    {
      "inputs": [
        {
          "internalType": "uint256",
          "name": "tokenId",
          "type": "uint256"
        }
      ],
      "name": "tokenURI",
      "outputs": [
        {
          "internalType": "string",
          "name": "",
          "type": "string"
        }
      ],
      "stateMutability": "view",
      "type": "function",
      "constant": true
    },
    {
      "inputs": [
        {
          "internalType": "bytes4",
          "name": "interfaceId",
          "type": "bytes4"
        }
      ],
      "name": "supportsInterface",
      "outputs": [
        {
          "internalType": "bool",
          "name": "",
          "type": "bool"
        }
      ],
      "stateMutability": "view",
      "type": "function",
      "constant": true
    }
  ],
  "bytecode": "0x608060405234801562000010575f80fd5b506040518060400160405280600f81526020016e29b2b1bab932a237b1b9aa37b5b2b760891b8152506040518060400160405280600381526020016214d11560ea1b815250815f90816200006591906200011d565b5060016200007482826200011d565b505050620001e5565b634e487b7160e01b5f52604160045260245ffd5b600181811c90821680620000a657607f821691505b602082108103620000c557634e487b7160e01b5f52602260045260245ffd5b50919050565b601f82111562000118575f81815260208120601f850160051c81016020861015620000f35750805b601f850160051c820191505b818110156200011457828155600101620000ff565b5050505b505050565b81516001600160401b038111156200013957620001396200007d565b62000151816200014a845462000091565b84620000cb565b602080601f83116001811462000187575f84156200016f5750858301515b5f19600386901b1c1916600185901b17855562000114565b5f85815260208120601f198616915b82811015620001b75788860151825594840194600190910190840162000196565b5085821015620001d557878501515f19600388901b60f8161c191681555b5050505050600190811b01905550565b61377c80620001f35f395ff3fe6080604052600436106101cf575f3560e01c806365020ce6116100fd578063a9f03ca711610092578063d22b2ed011610062578063d22b2ed0146105cf578063e985e9c5146105ee578063f13e833114610635578063fbc7b8ba14610663575f80fd5b8063a9f03ca714610553578063b88d4fde14610572578063c87b56dd14610591578063c94fb6dd146105b0575f80fd5b806385836223116100cd57806385836223146104e25780638ebea0951461050157806395d89b4114610520578063a22cb46514610534575f80fd5b806365020ce61461046157806367764b261461048057806370a08231146104a4578063769be00c146104c3575f80fd5b80631e8fea3e1161017357806342842e0e1161014357806342842e0e146103d657806350d05517146103f557806350fc4527146104145780636352211e14610442575f80fd5b80631e8fea3e146102fc57806323b872dd1461031b5780633bc1192f1461033a5780634089d49f14610359575f80fd5b8063081812fc116101ae578063081812fc1461025d578063095ea7b31461029457806312068e04146102b55780631e4b4a60146102c8575f80fd5b806216e526146101d357806301ffc9a71461020d57806306fdde031461023c575b5f80fd5b3480156101de575f80fd5b506101f26101ed366004612e87565b610678565b60405161020496959493929190612eed565b60405180910390f35b348015610218575f80fd5b5061022c610227366004612f69565b6108cb565b6040519015158152602001610204565b348015610247575f80fd5b506102506108db565b6040516102049190612f84565b348015610268575f80fd5b5061027c610277366004612f96565b61096a565b6040516001600160a01b039091168152602001610204565b34801561029f575f80fd5b506102b36102ae366004612fad565b61098f565b005b6102b36102c336600461307a565b610aa8565b3480156102d3575f80fd5b506102e76102e2366004612f96565b610fbe565b604051610204999897969594939291906130e2565b348015610307575f80fd5b506102b361031636600461316a565b611233565b348015610326575f80fd5b506102b3610335366004613220565b611528565b348015610345575f80fd5b506102b3610354366004613268565b611559565b348015610364575f80fd5b506103a9610373366004612f96565b600e6020525f908152604090208054600182015460028301546003909301546001600160a01b0392831693919092169160ff1684565b604080516001600160a01b0395861681529490931660208501529183015215156060820152608001610204565b3480156103e1575f80fd5b506102b36103f0366004613220565b6116e3565b348015610400575f80fd5b506102b361040f366004613292565b6116fd565b34801561041f575f80fd5b5061022c61042e366004612e87565b60096020525f908152604090205460ff1681565b34801561044d575f80fd5b5061027c61045c366004612f96565b611b34565b34801561046c575f80fd5b506102b361047b366004612e87565b611b93565b34801561048b575f80fd5b506007546104969081565b604051908152602001610204565b3480156104af575f80fd5b506104966104be366004612e87565b611c0e565b3480156104ce575f80fd5b506102b36104dd3660046132d4565b611c92565b3480156104ed575f80fd5b506102b36104fc366004612fad565b611e6b565b34801561050c575f80fd5b506102b361051b366004612f96565b611efe565b34801561052b575f80fd5b506102506120b3565b34801561053f575f80fd5b506102b361054e3660046132f5565b6120c2565b34801561055e575f80fd5b5061022c61056d366004612fad565b6120d1565b34801561057d575f80fd5b506102b361058c36600461331d565b61214c565b34801561059c575f80fd5b506102506105ab366004612f96565b612184565b3480156105bb575f80fd5b506102b36105ca366004612f96565b61218f565b3480156105da575f80fd5b506102b36105e9366004612e87565b612345565b3480156105f9575f80fd5b5061022c610608366004613394565b6001600160a01b039182165f90815260056020908152604080832093909416825291909152205460ff1690565b348015610640575f80fd5b5061022c61064f366004612e87565b60086020525f908152604090205460ff1681565b34801561066e575f80fd5b50610496600f5481565b600a6020525f9081526040902080548190610692906133bc565b80601f01602080910402602001604051908101604052809291908181526020018280546106be906133bc565b80156107095780601f106106e057610100808354040283529160200191610709565b820191905f5260205f20905b8154815290600101906020018083116106ec57829003601f168201915b50505050509080600101805461071e906133bc565b80601f016020809104026020016040519081016040528092919081815260200182805461074a906133bc565b80156107955780601f1061076c57610100808354040283529160200191610795565b820191905f5260205f20905b81548152906001019060200180831161077857829003601f168201915b5050505050908060020180546107aa906133bc565b80601f01602080910402602001604051908101604052809291908181526020018280546107d6906133bc565b80156108215780601f106107f857610100808354040283529160200191610821565b820191905f5260205f20905b81548152906001019060200180831161080457829003601f168201915b5050505060038301546004840154600585018054949560ff909316949193509061084a906133bc565b80601f0160208091040260200160405190810160405280929190818152602001828054610876906133bc565b80156108c15780601f10610898576101008083540402835291602001916108c1565b820191905f5260205f20905b8154815290600101906020018083116108a457829003601f168201915b5050505050905086565b5f6108d5826123c0565b92915050565b60605f80546108e9906133bc565b80601f0160208091040260200160405190810160405280929190818152602001828054610915906133bc565b80156109605780601f1061093757610100808354040283529160200191610960565b820191905f5260205f20905b81548152906001019060200180831161094357829003601f168201915b5050505050905090565b5f610974826123e4565b505f908152600460205260409020546001600160a01b031690565b5f61099982611b34565b9050806001600160a01b0316836001600160a01b031603610a0b5760405162461bcd60e51b815260206004820152602160248201527f4552433732313a20617070726f76616c20746f2063757272656e74206f776e656044820152603960f91b60648201526084015b60405180910390fd5b336001600160a01b0382161480610a275750610a278133610608565b610a995760405162461bcd60e51b815260206004820152603d60248201527f4552433732313a20617070726f76652063616c6c6572206973206e6f7420746f60448201527f6b656e206f776e6572206f7220617070726f76656420666f7220616c6c0000006064820152608401610a02565b610aa38383612437565b505050565b335f9081526009602052604090205460ff161515600114610adb5760405162461bcd60e51b8152600401610a02906133f4565b5f838152600c602052604090206008810154610af6906124a4565b610b125760405162461bcd60e51b8152600401610a029061343a565b600781015460ff16610b5e5760405162461bcd60e51b81526020600482015260156024820152744c697374696e67206973206e6f742061637469766560581b6044820152606401610a02565b8060020154341015610bc65760405162461bcd60e51b815260206004820152602b60248201527f496e73756666696369656e742066756e647320746f207075726368617365207460448201526a68652070726f706572747960a81b6064820152608401610a02565b5f610bd48260080154611b34565b9050336001600160a01b03821603610c2e5760405162461bcd60e51b815260206004820152601d60248201527f596f7520616c7265616479206f776e20746869732070726f70657274790000006044820152606401610a02565b8351610c885760405162461bcd60e51b815260206004820152602360248201527f496e707574205f6e65774f776e65724e616d6520737472696e6720697320656d60448201526270747960e81b6064820152608401610a02565b8251610cd65760405162461bcd60e51b815260206004820152601d60248201527f496e707574205f6e657755524920737472696e6720697320656d7074790000006044820152606401610a02565b610ce43383600801546124c0565b610d3e5760405162461bcd60e51b815260206004820152602560248201527f43616c6c6572206973206e6f7420746f6b656e206f776e6572206f72206170706044820152641c9bdd995960da1b6064820152608401610a02565b610d4d813384600801546116e3565b610d5b82600801548461253d565b6040516001600160a01b038216903480156108fc02915f818181858888f19350505050158015610d8d573d5f803e3d5ffd5b5060078201805460ff191690556040805160c08101909152848152600383018054602083019190610dbd906133bc565b80601f0160208091040260200160405190810160405280929190818152602001828054610de9906133bc565b8015610e345780601f10610e0b57610100808354040283529160200191610e34565b820191905f5260205f20905b815481529060010190602001808311610e1757829003601f168201915b50505050508152602001836004018054610e4d906133bc565b80601f0160208091040260200160405190810160405280929190818152602001828054610e79906133bc565b8015610ec45780601f10610e9b57610100808354040283529160200191610ec4565b820191905f5260205f20905b815481529060010190602001808311610ea757829003601f168201915b50505091835250505f602080830182905260088601546040808501919091526060909301879052338252600a90522081518190610f0190826134b5565b5060208201516001820190610f1690826134b5565b5060408201516002820190610f2b90826134b5565b50606082015160038201805460ff19169115159190911790556080820151600482015560a08201516005820190610f6290826134b5565b5050506008820154604080516001600160a01b03841681523460208201529081019190915233907f0f70b6fd9e9d9d9ad4284491fab7198867306a272142c8e589b49848c0ce19f1906060015b60405180910390a25050505050565b600c6020525f9081526040902080546001820180546001600160a01b039092169291610fe9906133bc565b80601f0160208091040260200160405190810160405280929190818152602001828054611015906133bc565b80156110605780601f1061103757610100808354040283529160200191611060565b820191905f5260205f20905b81548152906001019060200180831161104357829003601f168201915b50505050509080600201549080600301805461107b906133bc565b80601f01602080910402602001604051908101604052809291908181526020018280546110a7906133bc565b80156110f25780601f106110c9576101008083540402835291602001916110f2565b820191905f5260205f20905b8154815290600101906020018083116110d557829003601f168201915b505050505090806004018054611107906133bc565b80601f0160208091040260200160405190810160405280929190818152602001828054611133906133bc565b801561117e5780601f106111555761010080835404028352916020019161117e565b820191905f5260205f20905b81548152906001019060200180831161116157829003601f168201915b5050506005840154600685018054949560ff9092169491935091506111a2906133bc565b80601f01602080910402602001604051908101604052809291908181526020018280546111ce906133bc565b80156112195780601f106111f057610100808354040283529160200191611219565b820191905f5260205f20905b8154815290600101906020018083116111fc57829003601f168201915b505050506007830154600890930154919260ff1691905089565b335f9081526009602052604090205460ff1615156001146112665760405162461bcd60e51b8152600401610a02906133f4565b6001600160a01b0385165f9081526009602052604090205460ff1615156001146112d25760405162461bcd60e51b815260206004820181905260248201527f746f2061646472657373206d757374206265206120496e647576697475616c736044820152606401610a02565b83516113205760405162461bcd60e51b815260206004820181905260248201527f496e707574205f6f776e65724e616d6520737472696e6720697320656d7074796044820152606401610a02565b825161136e5760405162461bcd60e51b815260206004820152601e60248201527f496e707574205f646f634e616d6520737472696e6720697320656d70747900006044820152606401610a02565b81516113bc5760405162461bcd60e51b815260206004820152601b60248201527f496e707574205f6461746120737472696e6720697320656d70747900000000006044820152606401610a02565b805161140a5760405162461bcd60e51b815260206004820152601a60248201527f496e707574205f55524920737472696e6720697320656d7074790000000000006044820152606401610a02565b5f61141460075490565b905061142086826125f8565b61142a818361253d565b6040805160c08101825286815260208082018790528183018690525f606083018190526080830185905260a083018690526001600160a01b038a168152600a909152919091208151819061147e90826134b5565b506020820151600182019061149390826134b5565b50604082015160028201906114a890826134b5565b50606082015160038201805460ff19169115159190911790556080820151600482015560a082015160058201906114df90826134b5565b50506007805460010190555060405181906001600160a01b038816907fb02a560b464adcb9ebafe1095dae470eecd5510f00cccff503613dafe9fc36a5905f90a3505050505050565b61153233826124c0565b61154e5760405162461bcd60e51b8152600401610a0290613571565b610aa3838383612611565b335f9081526008602052604090205460ff1615156001146115d45760405162461bcd60e51b815260206004820152602f60248201527f6f6e6c7920676f7665726e6d656e7420617574686f726974792063616e20757360448201526e32903a3434b990333ab731ba34b7b760891b6064820152608401610a02565b5f828152600e6020526040902080546001600160a01b031661162d5760405162461bcd60e51b8152602060048201526012602482015271125b9d985b1a59081c995c5d595cdd08125160721b6044820152606401610a02565b600381015460ff16156116825760405162461bcd60e51b815260206004820152601860248201527f5265717565737420616c726561647920766572696669656400000000000000006044820152606401610a02565b81156116985760038101805460ff191660011790555b805460405183151581526001600160a01b039091169084907f5820a0413d581baa337c479581f0d42d8087b9c51fd28d1a34a840ee91b80bd6906020015b60405180910390a3505050565b610aa383838360405180602001604052805f81525061214c565b335f9081526009602052604090205460ff1615156001146117305760405162461bcd60e51b8152600401610a02906133f4565b8261173a816124a4565b6117565760405162461bcd60e51b8152600401610a029061343a565b3361176082611b34565b6001600160a01b0316146117865760405162461bcd60e51b8152600401610a02906135be565b5f83116117cc5760405162461bcd60e51b8152602060048201526014602482015273125b9d985b1a59081c1c9a58d948185b5bdd5b9d60621b6044820152606401610a02565b81516118255760405162461bcd60e51b815260206004820152602260248201527f496e707574205f6465736372697074696f6e20737472696e6720697320656d70604482015261747960f01b6064820152608401610a02565b335f818152600a6020908152604091829020825161012081019093529282528254908201908390611855906133bc565b80601f0160208091040260200160405190810160405280929190818152602001828054611881906133bc565b80156118cc5780601f106118a3576101008083540402835291602001916118cc565b820191905f5260205f20905b8154815290600101906020018083116118af57829003601f168201915b505050505081526020018581526020018260010180546118eb906133bc565b80601f0160208091040260200160405190810160405280929190818152602001828054611917906133bc565b80156119625780601f1061193957610100808354040283529160200191611962565b820191905f5260205f20905b81548152906001019060200180831161194557829003601f168201915b5050505050815260200182600201805461197b906133bc565b80601f01602080910402602001604051908101604052809291908181526020018280546119a7906133bc565b80156119f25780601f106119c9576101008083540402835291602001916119f2565b820191905f5260205f20905b8154815290600101906020018083116119d557829003601f168201915b5050509183525050600383015460ff16151560208083019190915260408083018790526001606084018190526080909301899052600b545f908152600c835220835181546001600160a01b0319166001600160a01b03909116178155908301519091820190611a6190826134b5565b506040820151600282015560608201516003820190611a8090826134b5565b5060808201516004820190611a9590826134b5565b5060a082015160058201805460ff191691151591909117905560c08201516006820190611ac290826134b5565b5060e082015160078201805460ff191691151591909117905561010090910151600890910155600b8054600191905f90611afd9084906135ff565b909155505060405184815233907fd45ae8d02a95e46a15b86aa93911a32c7e0bf35515df8de4945f3afb1ba1103990602001610faf565b5f818152600260205260408120546001600160a01b0316806108d55760405162461bcd60e51b8152602060048201526018602482015277115490cdcc8c4e881a5b9d985b1a59081d1bdad95b88125160421b6044820152606401610a02565b6001600160a01b0381165f03611beb5760405162461bcd60e51b815260206004820152601c60248201527f6e65656420746f2073656e6420612076616c69642061646472657373000000006044820152606401610a02565b6001600160a01b03165f908152600960205260409020805460ff19166001179055565b5f6001600160a01b038216611c775760405162461bcd60e51b815260206004820152602960248201527f4552433732313a2061646472657373207a65726f206973206e6f7420612076616044820152683634b21037bbb732b960b91b6064820152608401610a02565b506001600160a01b03165f9081526003602052604090205490565b335f9081526009602052604090205460ff161515600114611cc55760405162461bcd60e51b8152600401610a02906133f4565b81611ccf816124a4565b611ceb5760405162461bcd60e51b8152600401610a029061343a565b33611cf582611b34565b6001600160a01b031614611d1b5760405162461bcd60e51b8152600401610a02906135be565b6001600160a01b0382165f9081526008602052604090205460ff161515600114611d875760405162461bcd60e51b815260206004820152601a60248201527f496e76616c696420676f7665726e6d656e7420616464726573730000000000006044820152606401610a02565b604080516080810182523381526001600160a01b03841660208201529081018490525f60608201819052600f8054600e929182611dc383613612565b90915550815260208082019290925260409081015f20835181546001600160a01b03199081166001600160a01b03928316178355858501516001840180549092169083161790558483015160028301556060909401516003909101805460ff1916911515919091179055600f5490518681529285169233927f4a2aeeb145558d78051013d1567d751d44e18b072b002e475ee6dad5a824ffba910160405180910390a4505050565b335f9081526009602052604090205460ff161515600114611e9e5760405162461bcd60e51b8152600401610a02906133f4565b80611ea8816124a4565b611ec45760405162461bcd60e51b8152600401610a029061343a565b33611ece82611b34565b6001600160a01b031614611ef45760405162461bcd60e51b8152600401610a02906135be565b610aa3838361098f565b335f9081526009602052604090205460ff161515600114611f315760405162461bcd60e51b8152600401610a02906133f4565b80611f3b816124a4565b611f575760405162461bcd60e51b8152600401610a029061343a565b33611f6182611b34565b6001600160a01b031614611f875760405162461bcd60e51b8152600401610a02906135be565b33611f9183611b34565b6001600160a01b031614611fe25760405162461bcd60e51b81526020600482015260186024820152772cb7ba903237b713ba1037bbb7103a3434b9903a37b5b2b760411b6044820152606401610a02565b335f908152600d6020908152604080832085845290915290205460ff166120565760405162461bcd60e51b815260206004820152602260248201527f546f6b656e206973206e6f7420696e20746865206469676974616c206c6f636b60448201526132b960f11b6064820152608401610a02565b335f818152600d602090815260408083208684528252808320805460ff191690558051868152918201929092527f8fa4c9b462ff6b514b84cbe69dcfcb6ef0609daaa753e6270cbf2479d3f1e9f791015b60405180910390a25050565b6060600180546108e9906133bc565b6120cd338383612773565b5050565b5f6001600160a01b0383166121215760405162461bcd60e51b8152602060048201526016602482015275496e76616c6964205f6f776e6572206164647265737360501b6044820152606401610a02565b506001600160a01b03919091165f908152600d60209081526040808320938352929052205460ff1690565b61215633836124c0565b6121725760405162461bcd60e51b8152600401610a0290613571565b61217e84848484612838565b50505050565b60606108d58261286b565b335f9081526009602052604090205460ff1615156001146121c25760405162461bcd60e51b8152600401610a02906133f4565b806121cc816124a4565b6121e85760405162461bcd60e51b8152600401610a029061343a565b336121f282611b34565b6001600160a01b0316146122185760405162461bcd60e51b8152600401610a02906135be565b3361222283611b34565b6001600160a01b0316146122735760405162461bcd60e51b81526020600482015260186024820152772cb7ba903237b713ba1037bbb7103a3434b9903a37b5b2b760411b6044820152606401610a02565b335f908152600d6020908152604080832085845290915290205460ff16156122ec5760405162461bcd60e51b815260206004820152602660248201527f546f6b656e20697320616c726561647920696e20746865206469676974616c206044820152653637b1b5b2b960d11b6064820152608401610a02565b335f818152600d60209081526040808320868452825291829020805460ff191660019081179091558251868152918201527f8fa4c9b462ff6b514b84cbe69dcfcb6ef0609daaa753e6270cbf2479d3f1e9f791016120a7565b6001600160a01b0381165f0361239d5760405162461bcd60e51b815260206004820152601c60248201527f6e65656420746f2073656e6420612076616c69642061646472657373000000006044820152606401610a02565b6001600160a01b03165f908152600860205260409020805460ff19166001179055565b5f6001600160e01b03198216632483248360e11b14806108d557506108d58261298c565b6123ed816124a4565b6124345760405162461bcd60e51b8152602060048201526018602482015277115490cdcc8c4e881a5b9d985b1a59081d1bdad95b88125160421b6044820152606401610a02565b50565b5f81815260046020526040902080546001600160a01b0319166001600160a01b038416908117909155819061246b82611b34565b6001600160a01b03167f8c5be1e5ebec7d5bd14f71427d1e84f3dd0314c0f7b2291e5b200ac8c7c3b92560405160405180910390a45050565b5f908152600260205260409020546001600160a01b0316151590565b5f806124cb83611b34565b9050806001600160a01b0316846001600160a01b0316148061251157506001600160a01b038082165f9081526005602090815260408083209388168352929052205460ff165b806125355750836001600160a01b031661252a8461096a565b6001600160a01b0316145b949350505050565b612546826124a4565b6125a95760405162461bcd60e51b815260206004820152602e60248201527f45524337323155524953746f726167653a2055524920736574206f66206e6f6e60448201526d32bc34b9ba32b73a103a37b5b2b760911b6064820152608401610a02565b5f8281526006602052604090206125c082826134b5565b506040518281527ff8e1a15aba9398e019f0b49df1a4fde98ee17ae345cb5f6b5e2c27f5033e8ce79060200160405180910390a15050565b6120cd828260405180602001604052805f8152506129db565b826001600160a01b031661262482611b34565b6001600160a01b03161461264a5760405162461bcd60e51b8152600401610a029061362a565b6001600160a01b0382166126ac5760405162461bcd60e51b8152602060048201526024808201527f4552433732313a207472616e7366657220746f20746865207a65726f206164646044820152637265737360e01b6064820152608401610a02565b826001600160a01b03166126bf82611b34565b6001600160a01b0316146126e55760405162461bcd60e51b8152600401610a029061362a565b5f81815260046020908152604080832080546001600160a01b03199081169091556001600160a01b038781168086526003855283862080545f1901905590871680865283862080546001019055868652600290945282852080549092168417909155905184937fddf252ad1be2c89b69c2b068fc378daa952ba7f163c4a11628f55a4df523b3ef91a4505050565b816001600160a01b0316836001600160a01b0316036127d45760405162461bcd60e51b815260206004820152601960248201527f4552433732313a20617070726f766520746f2063616c6c6572000000000000006044820152606401610a02565b6001600160a01b038381165f81815260056020908152604080832094871680845294825291829020805460ff191686151590811790915591519182527f17307eab39ab6107e8899845ad3d59bd9653f200f220920489ca2b5937696c3191016116d6565b612843848484612611565b61284f84848484612a0d565b61217e5760405162461bcd60e51b8152600401610a029061366f565b6060612876826123e4565b5f828152600660205260408120805461288e906133bc565b80601f01602080910402602001604051908101604052809291908181526020018280546128ba906133bc565b80156129055780601f106128dc57610100808354040283529160200191612905565b820191905f5260205f20905b8154815290600101906020018083116128e857829003601f168201915b505050505090505f612940604080518082019091526016815275687474703a2f2f6c6f63616c686f73743a383030302f60501b602082015290565b905080515f03612951575092915050565b81511561298357808260405160200161296b9291906136c1565b60405160208183030381529060405292505050919050565b61253584612b0a565b5f6001600160e01b031982166380ac58cd60e01b14806129bc57506001600160e01b03198216635b5e139f60e01b145b806108d557506301ffc9a760e01b6001600160e01b03198316146108d5565b6129e58383612b99565b6129f15f848484612a0d565b610aa35760405162461bcd60e51b8152600401610a029061366f565b5f6001600160a01b0384163b15612aff57604051630a85bd0160e11b81526001600160a01b0385169063150b7a0290612a509033908990889088906004016136ef565b6020604051808303815f875af1925050508015612a8a575060408051601f3d908101601f19168201909252612a879181019061372b565b60015b612ae5573d808015612ab7576040519150601f19603f3d011682016040523d82523d5f602084013e612abc565b606091505b5080515f03612add5760405162461bcd60e51b8152600401610a029061366f565b805181602001fd5b6001600160e01b031916630a85bd0160e11b149050612535565b506001949350505050565b6060612b15826123e4565b5f612b49604080518082019091526016815275687474703a2f2f6c6f63616c686f73743a383030302f60501b602082015290565b90505f815111612b675760405180602001604052805f815250612b92565b80612b7184612d05565b604051602001612b829291906136c1565b6040516020818303038152906040525b9392505050565b6001600160a01b038216612bef5760405162461bcd60e51b815260206004820181905260248201527f4552433732313a206d696e7420746f20746865207a65726f20616464726573736044820152606401610a02565b612bf8816124a4565b15612c455760405162461bcd60e51b815260206004820152601c60248201527f4552433732313a20746f6b656e20616c7265616479206d696e746564000000006044820152606401610a02565b612c4e816124a4565b15612c9b5760405162461bcd60e51b815260206004820152601c60248201527f4552433732313a20746f6b656e20616c7265616479206d696e746564000000006044820152606401610a02565b6001600160a01b0382165f81815260036020908152604080832080546001019055848352600290915280822080546001600160a01b0319168417905551839291907fddf252ad1be2c89b69c2b068fc378daa952ba7f163c4a11628f55a4df523b3ef908290a45050565b60605f612d1183612d95565b60010190505f8167ffffffffffffffff811115612d3057612d30612fd5565b6040519080825280601f01601f191660200182016040528015612d5a576020820181803683370190505b5090508181016020015b5f19016f181899199a1a9b1b9c1cb0b131b232b360811b600a86061a8153600a8504945084612d6457509392505050565b5f8072184f03e93ff9f4daa797ed6e38ed64bf6a1f0160401b8310612dd35772184f03e93ff9f4daa797ed6e38ed64bf6a1f0160401b830492506040015b6d04ee2d6d415b85acef81000000008310612dff576d04ee2d6d415b85acef8100000000830492506020015b662386f26fc100008310612e1d57662386f26fc10000830492506010015b6305f5e1008310612e35576305f5e100830492506008015b6127108310612e4957612710830492506004015b60648310612e5b576064830492506002015b600a83106108d55760010192915050565b80356001600160a01b0381168114612e82575f80fd5b919050565b5f60208284031215612e97575f80fd5b612b9282612e6c565b5f5b83811015612eba578181015183820152602001612ea2565b50505f910152565b5f8151808452612ed9816020860160208601612ea0565b601f01601f19169290920160200192915050565b60c081525f612eff60c0830189612ec2565b8281036020840152612f118189612ec2565b90508281036040840152612f258188612ec2565b9050851515606084015284608084015282810360a0840152612f478185612ec2565b9998505050505050505050565b6001600160e01b031981168114612434575f80fd5b5f60208284031215612f79575f80fd5b8135612b9281612f54565b602081525f612b926020830184612ec2565b5f60208284031215612fa6575f80fd5b5035919050565b5f8060408385031215612fbe575f80fd5b612fc783612e6c565b946020939093013593505050565b634e487b7160e01b5f52604160045260245ffd5b5f67ffffffffffffffff8084111561300357613003612fd5565b604051601f8501601f19908116603f0116810190828211818310171561302b5761302b612fd5565b81604052809350858152868686011115613043575f80fd5b858560208301375f602087830101525050509392505050565b5f82601f83011261306b575f80fd5b612b9283833560208501612fe9565b5f805f6060848603121561308c575f80fd5b83359250602084013567ffffffffffffffff808211156130aa575f80fd5b6130b68783880161305c565b935060408601359150808211156130cb575f80fd5b506130d88682870161305c565b9150509250925092565b6001600160a01b038a168152610120602082018190525f906131068382018c612ec2565b90508960408401528281036060840152613120818a612ec2565b905082810360808401526131348189612ec2565b905086151560a084015282810360c08401526131508187612ec2565b94151560e084015250506101000152979650505050505050565b5f805f805f60a0868803121561317e575f80fd5b61318786612e6c565b9450602086013567ffffffffffffffff808211156131a3575f80fd5b6131af89838a0161305c565b955060408801359150808211156131c4575f80fd5b6131d089838a0161305c565b945060608801359150808211156131e5575f80fd5b6131f189838a0161305c565b93506080880135915080821115613206575f80fd5b506132138882890161305c565b9150509295509295909350565b5f805f60608486031215613232575f80fd5b61323b84612e6c565b925061324960208501612e6c565b9150604084013590509250925092565b80358015158114612e82575f80fd5b5f8060408385031215613279575f80fd5b8235915061328960208401613259565b90509250929050565b5f805f606084860312156132a4575f80fd5b8335925060208401359150604084013567ffffffffffffffff8111156132c8575f80fd5b6130d88682870161305c565b5f80604083850312156132e5575f80fd5b8235915061328960208401612e6c565b5f8060408385031215613306575f80fd5b61330f83612e6c565b915061328960208401613259565b5f805f8060808587031215613330575f80fd5b61333985612e6c565b935061334760208601612e6c565b925060408501359150606085013567ffffffffffffffff811115613369575f80fd5b8501601f81018713613379575f80fd5b61338887823560208401612fe9565b91505092959194509250565b5f80604083850312156133a5575f80fd5b6133ae83612e6c565b915061328960208401612e6c565b600181811c908216806133d057607f821691505b6020821081036133ee57634e487b7160e01b5f52602260045260245ffd5b50919050565b60208082526026908201527f6f6e6c7920496e647576697475616c732063616e2075736520746869732066756040820152653731ba34b7b760d11b606082015260800190565b602080825260149082015273151bdad95b88191bd95cc81b9bdd08195e1a5cdd60621b604082015260600190565b601f821115610aa3575f81815260208120601f850160051c8101602086101561348e5750805b601f850160051c820191505b818110156134ad5782815560010161349a565b505050505050565b815167ffffffffffffffff8111156134cf576134cf612fd5565b6134e3816134dd84546133bc565b84613468565b602080601f831160018114613516575f84156134ff5750858301515b5f19600386901b1c1916600185901b1785556134ad565b5f85815260208120601f198616915b8281101561354457888601518255948401946001909101908401613525565b508582101561356157878501515f19600388901b60f8161c191681555b5050505050600190811b01905550565b6020808252602d908201527f4552433732313a2063616c6c6572206973206e6f7420746f6b656e206f776e6560408201526c1c881bdc88185c1c1c9bdd9959609a1b606082015260800190565b6020808252601390820152722737ba103a3432903a37b5b2b71037bbb732b960691b604082015260600190565b634e487b7160e01b5f52601160045260245ffd5b808201808211156108d5576108d56135eb565b5f60018201613623576136236135eb565b5060010190565b60208082526025908201527f4552433732313a207472616e736665722066726f6d20696e636f72726563742060408201526437bbb732b960d91b606082015260800190565b60208082526032908201527f4552433732313a207472616e7366657220746f206e6f6e20455243373231526560408201527131b2b4bb32b91034b6b83632b6b2b73a32b960711b606082015260800190565b5f83516136d2818460208801612ea0565b8351908301906136e6818360208801612ea0565b01949350505050565b6001600160a01b03858116825284166020820152604081018390526080606082018190525f9061372190830184612ec2565b9695505050505050565b5f6020828403121561373b575f80fd5b8151612b9281612f5456fea2646970667358221220b1a65b148935e4d1fb46d3c8ca159d49a0efe3938501d6c86516dd328f9fcc1964736f6c63430008150033",
  "immutableReferences": {},
  "source": "// SPDX-License-Identifier: MIT\r\npragma solidity 0.8.21;\r\n\r\nimport \"@openzeppelin/contracts/token/ERC721/ERC721.sol\";\r\nimport \"@openzeppelin/contracts/token/ERC721/extensions/ERC721URIStorage.sol\";\r\nimport \"@openzeppelin/contracts/utils/Counters.sol\";\r\n\r\ncontract SecureDocsToken is ERC721, ERC721URIStorage {\r\n    using Counters for Counters.Counter;\r\n\r\n    Counters.Counter public certificateCounter;\r\n\r\n    struct Certificate {\r\n        string ownerName;\r\n        string docName;\r\n        string data; // (just small description about certificate)\r\n        bool validated;\r\n        uint256 tokenId;\r\n        string URI;\r\n    }\r\n\r\n    // account data\r\n    mapping(address => bool) public GovernmentAccounts;\r\n    mapping(address => bool) public InduvitualsAccounts;\r\n\r\n    // certificates details data\r\n    mapping(address => Certificate) public certificates;\r\n\r\n    // log important contract actions\r\n    event CertificateUploaded(\r\n        address indexed owner,\r\n        uint256 indexed certificateId\r\n    );\r\n    event CertificateValidated(uint256 indexed certificateId, bool validated);\r\n\r\n    // ====== ERC-721 NFT token name, symbol and baseURI defined =====\r\n    constructor() ERC721(\"SecureDocsToken\", \"SDT\") {}\r\n\r\n    function _baseURI() internal pure override returns (string memory) {\r\n        return \"http://localhost:8000/\";\r\n    }\r\n\r\n    // ====== grant the privilege for the given address =====\r\n    function grantGovernmentPrivilege(address _account) public {\r\n        require(address(0) != _account, \"need to send a valid address\");\r\n        GovernmentAccounts[_account] = true;\r\n    }\r\n\r\n    function grantInduvitualsPrivilege(address _account) public {\r\n        require(address(0) != _account, \"need to send a valid address\");\r\n        InduvitualsAccounts[_account] = true;\r\n    }\r\n\r\n    // ===== based on their role specific task they can do =====\r\n    modifier onlyGovernment() {\r\n        require(\r\n            GovernmentAccounts[msg.sender] == true,\r\n            \"only government authority can use this function\"\r\n        );\r\n        _;\r\n    }\r\n\r\n    modifier onlyInduvituals() {\r\n        require(\r\n            InduvitualsAccounts[msg.sender] == true,\r\n            \"only Induvituals can use this function\"\r\n        );\r\n        _;\r\n    }\r\n\r\n    // check string is valid\r\n    function isStringValid(string memory _str) internal pure returns (bool) {\r\n        bytes memory strBytes = bytes(_str);\r\n        return strBytes.length > 0;\r\n    }\r\n\r\n    // Mint token (Induvituals functionalities)\r\n    function mintDocument(\r\n        address _to,\r\n        string memory _ownerName,\r\n        string memory _docName,\r\n        string memory _data,\r\n        string memory _URI\r\n    ) public onlyInduvituals {\r\n        require(\r\n            InduvitualsAccounts[_to] == true,\r\n            \"to address must be a Induvituals\"\r\n        );\r\n        require(isStringValid(_ownerName), \"Input _ownerName string is empty\");\r\n        require(isStringValid(_docName), \"Input _docName string is empty\");\r\n        require(isStringValid(_data), \"Input _data string is empty\");\r\n        require(isStringValid(_URI), \"Input _URI string is empty\");\r\n\r\n        uint256 tokenId = certificateCounter.current();\r\n        // mint NFT token\r\n        _safeMint(_to, tokenId);\r\n        // Set the metadata URI for the NFT\r\n        _setTokenURI(tokenId, _URI);\r\n\r\n        certificates[_to] = Certificate(\r\n            _ownerName,\r\n            _docName,\r\n            _data,\r\n            false,\r\n            tokenId,\r\n            _URI\r\n        );\r\n        certificateCounter.increment();\r\n        emit CertificateUploaded(_to, tokenId);\r\n    }\r\n\r\n    // property listings for marketplace (Induvituals functionalities)\r\n\r\n    // property listing data\r\n    uint256 propertyListingCount;\r\n    struct PropertyListing {\r\n        address owner;\r\n        string ownerName;\r\n        uint256 price;\r\n        string docName;\r\n        string data;\r\n        bool validated;\r\n        string description;\r\n        bool isActive;\r\n        uint256 tokenId;\r\n    }\r\n\r\n    mapping(uint256 => PropertyListing) public propertyListings;\r\n\r\n    // event logs about marketplace functionalities\r\n    event PropertyTransferred(\r\n        uint256 indexed tokenId,\r\n        address indexed from,\r\n        address indexed to\r\n    );\r\n    event PropertyListed(address indexed ownerAddress, uint256 price);\r\n    event PropertyPurchasedFromMarketplace(\r\n        address oldOwner,\r\n        address indexed newOwner,\r\n        uint256 _price,\r\n        uint256 tokenId\r\n    );\r\n\r\n    // token checking\r\n    modifier tokenCheck(uint256 _tokenId) {\r\n        require(_exists(_tokenId), \"Token does not exist\");\r\n        require(ownerOf(_tokenId) == msg.sender, \"Not the token owner\");\r\n        _;\r\n    }\r\n\r\n    // property listing for the marketplace\r\n    function createPropertyListing(\r\n        uint256 _tokenId,\r\n        uint256 _price,\r\n        string memory _description\r\n    ) public onlyInduvituals tokenCheck(_tokenId) {\r\n        require(_price > 0, \"Invalid price amount\");\r\n        require(\r\n            isStringValid(_description),\r\n            \"Input _description string is empty\"\r\n        );\r\n\r\n        Certificate storage certificateDetails = certificates[msg.sender];\r\n\r\n        propertyListings[propertyListingCount] = PropertyListing(\r\n            msg.sender,\r\n            certificateDetails.ownerName,\r\n            _price,\r\n            certificateDetails.docName,\r\n            certificateDetails.data,\r\n            certificateDetails.validated,\r\n            _description,\r\n            true,\r\n            _tokenId\r\n        );\r\n        propertyListingCount += 1;\r\n        emit PropertyListed(msg.sender, _price);\r\n    }\r\n\r\n    // set approval for the buyer\r\n    function setApprovalForToken(\r\n        address _to,\r\n        uint256 _tokenId\r\n    ) public onlyInduvituals tokenCheck(_tokenId) {\r\n        approve(_to, _tokenId);\r\n    }\r\n\r\n    // transfer the ownership to the buyer\r\n    function purchaseProperty(\r\n        uint256 _listedId,\r\n        string memory _newOwnerName,\r\n        string memory _newURI\r\n    ) public payable onlyInduvituals {\r\n        PropertyListing storage listing = propertyListings[_listedId];\r\n\r\n        require(_exists(listing.tokenId), \"Token does not exist\");\r\n        require(listing.isActive, \"Listing is not active\");\r\n        require(\r\n            msg.value >= listing.price,\r\n            \"Insufficient funds to purchase the property\"\r\n        );\r\n\r\n        address oldOwner = ownerOf(listing.tokenId);\r\n        require(oldOwner != msg.sender, \"You already own this property\");\r\n        require(\r\n            isStringValid(_newOwnerName),\r\n            \"Input _newOwnerName string is empty\"\r\n        );\r\n        require(isStringValid(_newURI), \"Input _newURI string is empty\");\r\n        require(\r\n            _isApprovedOrOwner(msg.sender, listing.tokenId),\r\n            \"Caller is not token owner or approved\"\r\n        );\r\n\r\n        // transfer ownership of the NFT to the new owner\r\n        safeTransferFrom(oldOwner, msg.sender, listing.tokenId);\r\n        _setTokenURI(listing.tokenId, _newURI);\r\n\r\n        payable(oldOwner).transfer(msg.value);\r\n\r\n        listing.isActive = false;\r\n\r\n        certificates[msg.sender] = Certificate(\r\n            _newOwnerName,\r\n            listing.docName,\r\n            listing.data,\r\n            false,\r\n            listing.tokenId,\r\n            _newURI\r\n        );\r\n\r\n        emit PropertyPurchasedFromMarketplace(\r\n            oldOwner,\r\n            msg.sender,\r\n            msg.value,\r\n            listing.tokenId\r\n        );\r\n    }\r\n\r\n    // digital locker functionalities for each induvituals user (Induvituals functionalities)\r\n\r\n    // digital locker data\r\n    mapping(address => mapping(uint256 => bool)) private digitalLocker;\r\n\r\n    // log the digital locker updates\r\n    event DigitalLockerUpdated(\r\n        address indexed owner,\r\n        uint256 tokenId,\r\n        bool added\r\n    );\r\n\r\n    // add the induvituals user on the digital locker\r\n    function addToDigitalLocker(\r\n        uint256 _tokenId\r\n    ) external onlyInduvituals tokenCheck(_tokenId) {\r\n        require(ownerOf(_tokenId) == msg.sender, \"You don't own this token\");\r\n        require(\r\n            !digitalLocker[msg.sender][_tokenId],\r\n            \"Token is already in the digital locker\"\r\n        );\r\n\r\n        digitalLocker[msg.sender][_tokenId] = true;\r\n        emit DigitalLockerUpdated(msg.sender, _tokenId, true);\r\n    }\r\n\r\n    // remove the induvituals user on the digital locker\r\n    function removeFromDigitalLocker(\r\n        uint256 _tokenId\r\n    ) external onlyInduvituals tokenCheck(_tokenId) {\r\n        require(ownerOf(_tokenId) == msg.sender, \"You don't own this token\");\r\n        require(\r\n            digitalLocker[msg.sender][_tokenId],\r\n            \"Token is not in the digital locker\"\r\n        );\r\n\r\n        digitalLocker[msg.sender][_tokenId] = false;\r\n        emit DigitalLockerUpdated(msg.sender, _tokenId, false);\r\n    }\r\n\r\n    // check the induvituals user is in the digital locker\r\n    function isInDigitalLocker(\r\n        address _owner,\r\n        uint256 _tokenId\r\n    ) public view returns (bool) {\r\n        require(_owner > address(0), \"Invalid _owner address\");\r\n        return digitalLocker[_owner][_tokenId];\r\n    }\r\n\r\n    // property verification functionalities for each induvitual user's documets (Induvituals functionalities)\r\n\r\n    // property verification data\r\n    struct VerificationRequest {\r\n        address requester;\r\n        address governmentAddress;\r\n        uint256 tokenId;\r\n        bool isVerified;\r\n    }\r\n\r\n    mapping(uint256 => VerificationRequest) public verificationRequests;\r\n    uint256 public verificationRequestId;\r\n\r\n    // log events of the property verification process\r\n    event DocumentVerificationRequested(\r\n        uint256 indexed requestId,\r\n        address indexed requester,\r\n        address indexed governmentAddress,\r\n        uint256 tokenId\r\n    );\r\n    event DocumentVerificationResult(\r\n        uint256 indexed requestId,\r\n        address indexed requester,\r\n        bool _isValid\r\n    );\r\n\r\n    // request document verification from induvitual user's to government\r\n    function requestDocumentVerification(\r\n        uint256 _tokenId,\r\n        address _govAddress\r\n    ) external onlyInduvituals tokenCheck(_tokenId) {\r\n        require(\r\n            GovernmentAccounts[_govAddress] == true,\r\n            \"Invalid government address\"\r\n        );\r\n\r\n        verificationRequests[verificationRequestId++] = VerificationRequest(\r\n            msg.sender,\r\n            _govAddress,\r\n            _tokenId,\r\n            false\r\n        );\r\n\r\n        emit DocumentVerificationRequested(\r\n            verificationRequestId,\r\n            msg.sender,\r\n            _govAddress,\r\n            _tokenId\r\n        );\r\n    }\r\n\r\n    // property verification functionalities for each induvitual user's documets (Government functionalities)\r\n\r\n    // validate the induvitual user's documents\r\n    function validateDocumentVerification(\r\n        uint256 _requestId,\r\n        bool _isValid\r\n    ) external onlyGovernment {\r\n        VerificationRequest storage request = verificationRequests[_requestId];\r\n        require(request.requester != address(0), \"Invalid request ID\");\r\n        require(!request.isVerified, \"Request already verified\");\r\n\r\n        if (_isValid) {\r\n            request.isVerified = true;\r\n        }\r\n\r\n        emit DocumentVerificationResult(\r\n            _requestId,\r\n            request.requester,\r\n            _isValid\r\n        );\r\n    }\r\n\r\n    // The following functions are overrides required by Solidity.\r\n    function _burn(\r\n        uint256 tokenId\r\n    ) internal override(ERC721, ERC721URIStorage) onlyInduvituals {\r\n        super._burn(tokenId);\r\n    }\r\n\r\n    function tokenURI(\r\n        uint256 tokenId\r\n    ) public view override(ERC721, ERC721URIStorage) returns (string memory) {\r\n        return super.tokenURI(tokenId);\r\n    }\r\n\r\n    function supportsInterface(\r\n        bytes4 interfaceId\r\n    ) public view override(ERC721, ERC721URIStorage) returns (bool) {\r\n        return super.supportsInterface(interfaceId);\r\n    }\r\n}\r\n",
  "sourcePath": "C:\\Users\\TENSH_KKT\\Documents\\GitHub\\HackOdisha-3.0-Tech-Creed\\contracts\\SecureDocsToken.sol",
  "compiler": {
    "name": "solc",
    "version": "0.8.21+commit.d9974bed.Emscripten.clang"
  },
  "schemaVersion": "3.4.15",
  "updatedAt": "2023-09-10T08:28:34.903Z",
  "networkType": "ethereum",
  "devdoc": {
    "events": {
      "Approval(address,address,uint256)": {
        "details": "Emitted when `owner` enables `approved` to manage the `tokenId` token."
      },
      "ApprovalForAll(address,address,bool)": {
        "details": "Emitted when `owner` enables or disables (`approved`) `operator` to manage all of its assets."
      },
      "BatchMetadataUpdate(uint256,uint256)": {
        "details": "This event emits when the metadata of a range of tokens is changed. So that the third-party platforms such as NFT market could timely update the images and related attributes of the NFTs."
      },
      "MetadataUpdate(uint256)": {
        "details": "This event emits when the metadata of a token is changed. So that the third-party platforms such as NFT market could timely update the images and related attributes of the NFT."
      },
      "Transfer(address,address,uint256)": {
        "details": "Emitted when `tokenId` token is transferred from `from` to `to`."
      }
    },
    "kind": "dev",
    "methods": {
      "approve(address,uint256)": {
        "details": "See {IERC721-approve}."
      },
      "balanceOf(address)": {
        "details": "See {IERC721-balanceOf}."
      },
      "getApproved(uint256)": {
        "details": "See {IERC721-getApproved}."
      },
      "isApprovedForAll(address,address)": {
        "details": "See {IERC721-isApprovedForAll}."
      },
      "name()": {
        "details": "See {IERC721Metadata-name}."
      },
      "ownerOf(uint256)": {
        "details": "See {IERC721-ownerOf}."
      },
      "safeTransferFrom(address,address,uint256)": {
        "details": "See {IERC721-safeTransferFrom}."
      },
      "safeTransferFrom(address,address,uint256,bytes)": {
        "details": "See {IERC721-safeTransferFrom}."
      },
      "setApprovalForAll(address,bool)": {
        "details": "See {IERC721-setApprovalForAll}."
      },
      "symbol()": {
        "details": "See {IERC721Metadata-symbol}."
      },
      "transferFrom(address,address,uint256)": {
        "details": "See {IERC721-transferFrom}."
      }
    },
    "version": 1
  },
  "userdoc": {
    "kind": "user",
    "methods": {},
    "version": 1
  }
}