{
  "contractName": "UserAuth",
  "abi": [
    {
      "anonymous": false,
      "inputs": [
        {
          "indexed": true,
          "internalType": "address",
          "name": "walletId",
          "type": "address"
        },
        {
          "indexed": true,
          "internalType": "string",
          "name": "name",
          "type": "string"
        },
        {
          "indexed": true,
          "internalType": "string",
          "name": "privilege",
          "type": "string"
        },
        {
          "indexed": false,
          "internalType": "string",
          "name": "authority",
          "type": "string"
        }
      ],
      "name": "UserRegistered",
      "type": "event"
    },
    {
      "inputs": [
        {
          "internalType": "address",
          "name": "",
          "type": "address"
        }
      ],
      "name": "Users",
      "outputs": [
        {
          "internalType": "string",
          "name": "name",
          "type": "string"
        },
        {
          "internalType": "string",
          "name": "privilege",
          "type": "string"
        },
        {
          "internalType": "string",
          "name": "authority",
          "type": "string"
        }
      ],
      "stateMutability": "view",
      "type": "function",
      "constant": true
    },
    {
      "inputs": [],
      "name": "userCount",
      "outputs": [
        {
          "internalType": "uint256",
          "name": "",
          "type": "uint256"
        }
      ],
      "stateMutability": "view",
      "type": "function",
      "constant": true
    },
    {
      "inputs": [
        {
          "internalType": "address",
          "name": "_userAddress",
          "type": "address"
        }
      ],
      "name": "checkUserExists",
      "outputs": [
        {
          "internalType": "bool",
          "name": "",
          "type": "bool"
        }
      ],
      "stateMutability": "view",
      "type": "function",
      "constant": true
    },
    {
      "inputs": [
        {
          "internalType": "address",
          "name": "_walletId",
          "type": "address"
        },
        {
          "internalType": "string",
          "name": "_name",
          "type": "string"
        },
        {
          "internalType": "string",
          "name": "_privilege",
          "type": "string"
        },
        {
          "internalType": "string",
          "name": "_authority",
          "type": "string"
        }
      ],
      "name": "setUser",
      "outputs": [],
      "stateMutability": "nonpayable",
      "type": "function"
    }
  ],
  "bytecode": "0x608060405234801561000f575f80fd5b50610dd48061001d5f395ff3fe608060405234801561000f575f80fd5b506004361061004a575f3560e01c806307973ccf1461004e578063133f50f51461006c5780631d201a891461009c57806399b956a0146100b8575b5f80fd5b6100566100ea565b6040516100639190610519565b60405180910390f35b6100866004803603810190610081919061059d565b6100ef565b60405161009391906105e2565b60405180910390f35b6100b660048036038101906100b19190610737565b610216565b005b6100d260048036038101906100cd919061059d565b610349565b6040516100e193929190610869565b60405180910390f35b5f5481565b5f6040516020016100ff90610907565b6040516020818303038152906040528051906020012060015f8473ffffffffffffffffffffffffffffffffffffffff1673ffffffffffffffffffffffffffffffffffffffff1681526020019081526020015f206001016040516020016101659190610a0a565b60405160208183030381529060405280519060200120148061020f575060405160200161019190610a6a565b6040516020818303038152906040528051906020012060015f8473ffffffffffffffffffffffffffffffffffffffff1673ffffffffffffffffffffffffffffffffffffffff1681526020019081526020015f206001016040516020016101f79190610a0a565b60405160208183030381529060405280519060200120145b9050919050565b60405180606001604052808481526020018381526020018281525060015f8673ffffffffffffffffffffffffffffffffffffffff1673ffffffffffffffffffffffffffffffffffffffff1681526020019081526020015f205f820151815f0190816102819190610c09565b5060208201518160010190816102979190610c09565b5060408201518160020190816102ad9190610c09565b5090505060015f808282546102c29190610d05565b92505081905550816040516102d79190610d68565b6040518091039020836040516102ed9190610d68565b60405180910390208573ffffffffffffffffffffffffffffffffffffffff167f509c70f523067009f7db7f46db6956d7af8b679323680dc3821a8bad001ac1e18460405161033b9190610d7e565b60405180910390a450505050565b6001602052805f5260405f205f91509050805f01805461036890610948565b80601f016020809104026020016040519081016040528092919081815260200182805461039490610948565b80156103df5780601f106103b6576101008083540402835291602001916103df565b820191905f5260205f20905b8154815290600101906020018083116103c257829003601f168201915b5050505050908060010180546103f490610948565b80601f016020809104026020016040519081016040528092919081815260200182805461042090610948565b801561046b5780601f106104425761010080835404028352916020019161046b565b820191905f5260205f20905b81548152906001019060200180831161044e57829003601f168201915b50505050509080600201805461048090610948565b80601f01602080910402602001604051908101604052809291908181526020018280546104ac90610948565b80156104f75780601f106104ce576101008083540402835291602001916104f7565b820191905f5260205f20905b8154815290600101906020018083116104da57829003601f168201915b5050505050905083565b5f819050919050565b61051381610501565b82525050565b5f60208201905061052c5f83018461050a565b92915050565b5f604051905090565b5f80fd5b5f80fd5b5f73ffffffffffffffffffffffffffffffffffffffff82169050919050565b5f61056c82610543565b9050919050565b61057c81610562565b8114610586575f80fd5b50565b5f8135905061059781610573565b92915050565b5f602082840312156105b2576105b161053b565b5b5f6105bf84828501610589565b91505092915050565b5f8115159050919050565b6105dc816105c8565b82525050565b5f6020820190506105f55f8301846105d3565b92915050565b5f80fd5b5f80fd5b5f601f19601f8301169050919050565b7f4e487b71000000000000000000000000000000000000000000000000000000005f52604160045260245ffd5b61064982610603565b810181811067ffffffffffffffff8211171561066857610667610613565b5b80604052505050565b5f61067a610532565b90506106868282610640565b919050565b5f67ffffffffffffffff8211156106a5576106a4610613565b5b6106ae82610603565b9050602081019050919050565b828183375f83830152505050565b5f6106db6106d68461068b565b610671565b9050828152602081018484840111156106f7576106f66105ff565b5b6107028482856106bb565b509392505050565b5f82601f83011261071e5761071d6105fb565b5b813561072e8482602086016106c9565b91505092915050565b5f805f806080858703121561074f5761074e61053b565b5b5f61075c87828801610589565b945050602085013567ffffffffffffffff81111561077d5761077c61053f565b5b6107898782880161070a565b935050604085013567ffffffffffffffff8111156107aa576107a961053f565b5b6107b68782880161070a565b925050606085013567ffffffffffffffff8111156107d7576107d661053f565b5b6107e38782880161070a565b91505092959194509250565b5f81519050919050565b5f82825260208201905092915050565b5f5b8381101561082657808201518184015260208101905061080b565b5f8484015250505050565b5f61083b826107ef565b61084581856107f9565b9350610855818560208601610809565b61085e81610603565b840191505092915050565b5f6060820190508181035f8301526108818186610831565b905081810360208301526108958185610831565b905081810360408301526108a98184610831565b9050949350505050565b5f81905092915050565b7f676f7665726e6d656e74000000000000000000000000000000000000000000005f82015250565b5f6108f1600a836108b3565b91506108fc826108bd565b600a82019050919050565b5f610911826108e5565b9150819050919050565b7f4e487b71000000000000000000000000000000000000000000000000000000005f52602260045260245ffd5b5f600282049050600182168061095f57607f821691505b6020821081036109725761097161091b565b5b50919050565b5f819050815f5260205f209050919050565b5f815461099681610948565b6109a081866108b3565b9450600182165f81146109ba57600181146109cf57610a01565b60ff1983168652811515820286019350610a01565b6109d885610978565b5f5b838110156109f9578154818901526001820191506020810190506109da565b838801955050505b50505092915050565b5f610a15828461098a565b915081905092915050565b7f696e646976696475616c000000000000000000000000000000000000000000005f82015250565b5f610a54600a836108b3565b9150610a5f82610a20565b600a82019050919050565b5f610a7482610a48565b9150819050919050565b5f6020601f8301049050919050565b5f82821b905092915050565b5f60088302610ac87fffffffffffffffffffffffffffffffffffffffffffffffffffffffffffffffff82610a8d565b610ad28683610a8d565b95508019841693508086168417925050509392505050565b5f819050919050565b5f610b0d610b08610b0384610501565b610aea565b610501565b9050919050565b5f819050919050565b610b2683610af3565b610b3a610b3282610b14565b848454610a99565b825550505050565b5f90565b610b4e610b42565b610b59818484610b1d565b505050565b5b81811015610b7c57610b715f82610b46565b600181019050610b5f565b5050565b601f821115610bc157610b9281610978565b610b9b84610a7e565b81016020851015610baa578190505b610bbe610bb685610a7e565b830182610b5e565b50505b505050565b5f82821c905092915050565b5f610be15f1984600802610bc6565b1980831691505092915050565b5f610bf98383610bd2565b9150826002028217905092915050565b610c12826107ef565b67ffffffffffffffff811115610c2b57610c2a610613565b5b610c358254610948565b610c40828285610b80565b5f60209050601f831160018114610c71575f8415610c5f578287015190505b610c698582610bee565b865550610cd0565b601f198416610c7f86610978565b5f5b82811015610ca657848901518255600182019150602085019450602081019050610c81565b86831015610cc35784890151610cbf601f891682610bd2565b8355505b6001600288020188555050505b505050505050565b7f4e487b71000000000000000000000000000000000000000000000000000000005f52601160045260245ffd5b5f610d0f82610501565b9150610d1a83610501565b9250828201905080821115610d3257610d31610cd8565b5b92915050565b5f610d42826107ef565b610d4c81856108b3565b9350610d5c818560208601610809565b80840191505092915050565b5f610d738284610d38565b915081905092915050565b5f6020820190508181035f830152610d968184610831565b90509291505056fea26469706673582212202c794783e3b461ea5f24c492e0b7bff046e43f3977499f3858a22b3696b4079564736f6c63430008150033",
  "immutableReferences": {},
  "source": " // SPDX-License-Identifier: MIT\r\n pragma solidity 0.8.21;\r\n\r\n contract UserAuth{\r\n    uint public userCount;\r\n    \r\n    struct User{\r\n        string name;\r\n        string privilege;\r\n        string authority;\r\n    }\r\n\r\n    event UserRegistered(address indexed walletId,string indexed name, string indexed privilege, string authority);\r\n\r\n    mapping (address => User) public Users;\r\n\r\n    function checkUserExists(address _userAddress) public view returns(bool) \r\n    {\r\n        return  keccak256(abi.encodePacked(Users[_userAddress].privilege)) ==  keccak256(abi.encodePacked(\"government\")) ||  keccak256(abi.encodePacked(Users[_userAddress].privilege)) == keccak256(abi.encodePacked(\"individual\"));\r\n    }\r\n\r\n    function setUser(address _walletId,string memory _name,string memory _privilege,string memory _authority) public{\r\n        Users[_walletId] = User(_name,_privilege,_authority);\r\n        userCount += 1;\r\n        emit UserRegistered(_walletId,_name,_privilege,_authority);\r\n    }\r\n }",
  "sourcePath": "C:\\Users\\TENSH_KKT\\Documents\\GitHub\\HackOdisha-3.0-Tech-Creed\\contracts\\UserAuth.sol",
  "compiler": {
    "name": "solc",
    "version": "0.8.21+commit.d9974bed.Emscripten.clang"
  },
  "schemaVersion": "3.4.15",
  "updatedAt": "2023-09-09T19:38:00.009Z",
  "networkType": "ethereum",
  "devdoc": {
    "kind": "dev",
    "methods": {},
    "version": 1
  },
  "userdoc": {
    "kind": "user",
    "methods": {},
    "version": 1
  }
}