{
  "contractName": "UserAuth",
  "abi": [
    {
      "anonymous": false,
      "inputs": [
        {
          "indexed": true,
          "internalType": "address",
          "name": "walletId",
          "type": "address"
        },
        {
          "indexed": true,
          "internalType": "string",
          "name": "name",
          "type": "string"
        },
        {
          "indexed": true,
          "internalType": "string",
          "name": "privilege",
          "type": "string"
        },
        {
          "indexed": false,
          "internalType": "string",
          "name": "authority",
          "type": "string"
        }
      ],
      "name": "UserRegistered",
      "type": "event"
    },
    {
      "inputs": [
        {
          "internalType": "address",
          "name": "",
          "type": "address"
        }
      ],
      "name": "Users",
      "outputs": [
        {
          "internalType": "string",
          "name": "name",
          "type": "string"
        },
        {
          "internalType": "string",
          "name": "privilege",
          "type": "string"
        },
        {
          "internalType": "string",
          "name": "authority",
          "type": "string"
        }
      ],
      "stateMutability": "view",
      "type": "function",
      "constant": true
    },
    {
      "inputs": [],
      "name": "userCount",
      "outputs": [
        {
          "internalType": "uint256",
          "name": "",
          "type": "uint256"
        }
      ],
      "stateMutability": "view",
      "type": "function",
      "constant": true
    },
    {
      "inputs": [
        {
          "internalType": "address",
          "name": "_userAddress",
          "type": "address"
        }
      ],
      "name": "checkUserExists",
      "outputs": [
        {
          "internalType": "bool",
          "name": "",
          "type": "bool"
        }
      ],
      "stateMutability": "view",
      "type": "function",
      "constant": true
    },
    {
      "inputs": [
        {
          "internalType": "address",
          "name": "_walletId",
          "type": "address"
        },
        {
          "internalType": "string",
          "name": "_name",
          "type": "string"
        },
        {
          "internalType": "string",
          "name": "_privilege",
          "type": "string"
        },
        {
          "internalType": "string",
          "name": "_authority",
          "type": "string"
        }
      ],
      "name": "setUser",
      "outputs": [],
      "stateMutability": "nonpayable",
      "type": "function"
    }
  ],
  "bytecode": "0x608060405234801561000f575f80fd5b5061088a8061001d5f395ff3fe608060405234801561000f575f80fd5b506004361061004a575f3560e01c806307973ccf1461004e578063133f50f5146100695780631d201a891461008c57806399b956a0146100a1575b5f80fd5b6100565f5481565b6040519081526020015b60405180910390f35b61007c610077366004610475565b6100c3565b6040519015158152602001610060565b61009f61009a366004610532565b6101b0565b005b6100b46100af366004610475565b6102a7565b60405161006093929190610612565b6040516919dbdd995c9b9b595b9d60b21b60208201525f90602a0160408051601f1981840301815282825280516020918201206001600160a01b0386165f9081526001808452939020909361011d9391909101910161068c565b6040516020818303038152906040528051906020012014806101aa5750604051691a5b991a5d9a591d585b60b21b6020820152602a0160408051601f1981840301815282825280516020918201206001600160a01b0386165f908152600180845293902090936101929391909101910161068c565b60405160208183030381529060405280519060200120145b92915050565b6040805160608101825284815260208082018590528183018490526001600160a01b0387165f908152600190915291909120815181906101f0908261074c565b5060208201516001820190610205908261074c565b506040820151600282019061021a908261074c565b5090505060015f8082825461022f9190610808565b9091555050604051610242908390610827565b6040518091039020836040516102589190610827565b6040518091039020856001600160a01b03167f509c70f523067009f7db7f46db6956d7af8b679323680dc3821a8bad001ac1e1846040516102999190610842565b60405180910390a450505050565b60016020525f90815260409020805481906102c190610654565b80601f01602080910402602001604051908101604052809291908181526020018280546102ed90610654565b80156103385780601f1061030f57610100808354040283529160200191610338565b820191905f5260205f20905b81548152906001019060200180831161031b57829003601f168201915b50505050509080600101805461034d90610654565b80601f016020809104026020016040519081016040528092919081815260200182805461037990610654565b80156103c45780601f1061039b576101008083540402835291602001916103c4565b820191905f5260205f20905b8154815290600101906020018083116103a757829003601f168201915b5050505050908060020180546103d990610654565b80601f016020809104026020016040519081016040528092919081815260200182805461040590610654565b80156104505780601f1061042757610100808354040283529160200191610450565b820191905f5260205f20905b81548152906001019060200180831161043357829003601f168201915b5050505050905083565b80356001600160a01b0381168114610470575f80fd5b919050565b5f60208284031215610485575f80fd5b61048e8261045a565b9392505050565b634e487b7160e01b5f52604160045260245ffd5b5f82601f8301126104b8575f80fd5b813567ffffffffffffffff808211156104d3576104d3610495565b604051601f8301601f19908116603f011681019082821181831017156104fb576104fb610495565b81604052838152866020858801011115610513575f80fd5b836020870160208301375f602085830101528094505050505092915050565b5f805f8060808587031215610545575f80fd5b61054e8561045a565b9350602085013567ffffffffffffffff8082111561056a575f80fd5b610576888389016104a9565b9450604087013591508082111561058b575f80fd5b610597888389016104a9565b935060608701359150808211156105ac575f80fd5b506105b9878288016104a9565b91505092959194509250565b5f5b838110156105df5781810151838201526020016105c7565b50505f910152565b5f81518084526105fe8160208601602086016105c5565b601f01601f19169290920160200192915050565b606081525f61062460608301866105e7565b828103602084015261063681866105e7565b9050828103604084015261064a81856105e7565b9695505050505050565b600181811c9082168061066857607f821691505b60208210810361068657634e487b7160e01b5f52602260045260245ffd5b50919050565b5f80835461069981610654565b600182811680156106b157600181146106c6576106f2565b60ff19841687528215158302870194506106f2565b875f526020805f205f5b858110156106e95781548a8201529084019082016106d0565b50505082870194505b50929695505050505050565b601f821115610747575f81815260208120601f850160051c810160208610156107245750805b601f850160051c820191505b8181101561074357828155600101610730565b5050505b505050565b815167ffffffffffffffff81111561076657610766610495565b61077a816107748454610654565b846106fe565b602080601f8311600181146107ad575f84156107965750858301515b5f19600386901b1c1916600185901b178555610743565b5f85815260208120601f198616915b828110156107db578886015182559484019460019091019084016107bc565b50858210156107f857878501515f19600388901b60f8161c191681555b5050505050600190811b01905550565b808201808211156101aa57634e487b7160e01b5f52601160045260245ffd5b5f82516108388184602087016105c5565b9190910192915050565b602081525f61048e60208301846105e756fea2646970667358221220c85997202a42fd814104b373673126fb055d2e4f92abf0875dc39ecdc50e7ce764736f6c63430008150033",
  "immutableReferences": {},
  "source": " // SPDX-License-Identifier: MIT\r\n pragma solidity 0.8.21;\r\n\r\n contract UserAuth{\r\n    uint public userCount;\r\n    \r\n    struct User{\r\n        string name;\r\n        string privilege;\r\n        string authority;\r\n    }\r\n\r\n    event UserRegistered(address indexed walletId,string indexed name, string indexed privilege, string authority);\r\n\r\n    mapping (address => User) public Users;\r\n\r\n    function checkUserExists(address _userAddress) public view returns(bool) \r\n    {\r\n        return  keccak256(abi.encodePacked(Users[_userAddress].privilege)) ==  keccak256(abi.encodePacked(\"government\")) ||  keccak256(abi.encodePacked(Users[_userAddress].privilege)) == keccak256(abi.encodePacked(\"individual\"));\r\n    }\r\n\r\n    function setUser(address _walletId,string memory _name,string memory _privilege,string memory _authority) public{\r\n        Users[_walletId] = User(_name,_privilege,_authority);\r\n        userCount += 1;\r\n        emit UserRegistered(_walletId,_name,_privilege,_authority);\r\n    }\r\n }",
  "sourcePath": "C:\\Users\\TENSH_KKT\\Documents\\GitHub\\HackOdisha-3.0-Tech-Creed\\contracts\\UserAuth.sol",
  "compiler": {
    "name": "solc",
    "version": "0.8.21+commit.d9974bed.Emscripten.clang"
  },
  "schemaVersion": "3.4.15",
  "updatedAt": "2023-09-10T08:28:34.019Z",
  "networkType": "ethereum",
  "devdoc": {
    "kind": "dev",
    "methods": {},
    "version": 1
  },
  "userdoc": {
    "kind": "user",
    "methods": {},
    "version": 1
  }
}